{
  "contractName": "KycBlockChain",
  "abi": [
    {
      "inputs": [
        {
          "internalType": "uint256",
          "name": "",
          "type": "uint256"
        }
      ],
      "name": "Banks",
      "outputs": [
        {
          "internalType": "address",
          "name": "",
          "type": "address"
        }
      ],
      "stateMutability": "view",
      "type": "function",
      "constant": true
    },
    {
      "inputs": [
        {
          "internalType": "uint256",
          "name": "",
          "type": "uint256"
        }
      ],
      "name": "Requests",
      "outputs": [
        {
          "internalType": "address",
          "name": "",
          "type": "address"
        }
      ],
      "stateMutability": "view",
      "type": "function",
      "constant": true
    },
    {
      "inputs": [],
      "name": "bankslength",
      "outputs": [
        {
          "internalType": "uint256",
          "name": "",
          "type": "uint256"
        }
      ],
      "stateMutability": "view",
      "type": "function",
      "constant": true
    },
    {
      "inputs": [],
      "name": "isOrg",
      "outputs": [
        {
          "internalType": "bool",
          "name": "",
          "type": "bool"
        }
      ],
      "stateMutability": "view",
      "type": "function",
      "constant": true
    },
    {
      "inputs": [],
      "name": "isCus",
      "outputs": [
        {
          "internalType": "bool",
          "name": "",
          "type": "bool"
        }
      ],
      "stateMutability": "view",
      "type": "function",
      "constant": true
    },
    {
      "inputs": [
        {
          "internalType": "string",
          "name": "_name",
          "type": "string"
        },
        {
          "internalType": "string",
          "name": "_hash",
          "type": "string"
        },
        {
          "internalType": "address",
          "name": "_bank",
          "type": "address"
        }
      ],
      "name": "newCustomer",
      "outputs": [
        {
          "internalType": "bool",
          "name": "",
          "type": "bool"
        }
      ],
      "stateMutability": "payable",
      "type": "function",
      "payable": true
    },
    {
      "inputs": [
        {
          "internalType": "string",
          "name": "_name",
          "type": "string"
        }
      ],
      "name": "newOrganisation",
      "outputs": [
        {
          "internalType": "bool",
          "name": "",
          "type": "bool"
        }
      ],
      "stateMutability": "payable",
      "type": "function",
      "payable": true
    },
    {
      "inputs": [
        {
          "internalType": "address",
          "name": "_address",
          "type": "address"
        }
      ],
      "name": "viewCustomerData",
      "outputs": [
        {
          "internalType": "string",
          "name": "",
          "type": "string"
        }
      ],
      "stateMutability": "view",
      "type": "function",
      "constant": true
    },
    {
      "inputs": [
        {
          "internalType": "string",
          "name": "_name",
          "type": "string"
        },
        {
          "internalType": "string",
          "name": "_hash",
          "type": "string"
        },
        {
          "internalType": "address",
          "name": "_bank",
          "type": "address"
        }
      ],
      "name": "modifyCustomerData",
      "outputs": [
        {
          "internalType": "bool",
          "name": "",
          "type": "bool"
        }
      ],
      "stateMutability": "payable",
      "type": "function",
      "payable": true
    },
    {
      "inputs": [],
      "name": "checkStatus",
      "outputs": [
        {
          "internalType": "enum KYC_Functions.Status",
          "name": "",
          "type": "uint8"
        }
      ],
      "stateMutability": "nonpayable",
      "type": "function"
    },
    {
      "inputs": [
        {
          "internalType": "address",
          "name": "_custaddress",
          "type": "address"
        }
      ],
      "name": "changeStatusToAccepted",
      "outputs": [],
      "stateMutability": "payable",
      "type": "function",
      "payable": true
    },
    {
      "inputs": [
        {
          "internalType": "address",
          "name": "_custaddress",
          "type": "address"
        }
      ],
      "name": "changeStatusToRejected",
      "outputs": [],
      "stateMutability": "payable",
      "type": "function",
      "payable": true
    },
    {
      "inputs": [],
      "name": "viewRequests",
      "outputs": [
        {
          "internalType": "address[]",
          "name": "",
          "type": "address[]"
        }
      ],
      "stateMutability": "view",
      "type": "function",
      "constant": true
    },
    {
      "inputs": [
        {
          "internalType": "address",
          "name": "_address",
          "type": "address"
        }
      ],
      "name": "viewName",
      "outputs": [
        {
          "internalType": "string",
          "name": "",
          "type": "string"
        }
      ],
      "stateMutability": "view",
      "type": "function",
      "constant": true
    },
    {
      "inputs": [],
      "name": "getBanks",
      "outputs": [
        {
          "components": [
            {
              "internalType": "string",
              "name": "b_name",
              "type": "string"
            },
            {
              "internalType": "address",
              "name": "bankAddress",
              "type": "address"
            }
          ],
          "internalType": "struct BankInfo[]",
          "name": "",
          "type": "tuple[]"
        }
      ],
      "stateMutability": "view",
      "type": "function",
      "constant": true
    }
  ],
  "bytecode": "0x6080604052600060025534801561001557600080fd5b50612441806100256000396000f3fe6080604052600436106100e75760003560e01c8063521e686d1161008a578063aeb61c7c11610059578063aeb61c7c146102f6578063b8d7ec2d14610333578063d327522814610363578063da724c0d1461038e576100e7565b8063521e686d1461024757806360f949d9146102725780638a53fd111461029d578063972c7387146102b9576100e7565b806331d823ac116100c657806331d823ac146101895780633b7104f2146101b457806340ac9993146101df57806343347e0e1461021c576100e7565b8062699429146100ec5780630320403c1461012957806305c5bf4c14610159575b600080fd5b3480156100f857600080fd5b50610113600480360381019061010e9190611ac9565b6103aa565b60405161012091906120db565b60405180910390f35b610143600480360381019061013e9190611b33565b610568565b60405161015091906120a5565b60405180910390f35b610173600480360381019061016e9190611af2565b6106eb565b60405161018091906120a5565b60405180910390f35b34801561019557600080fd5b5061019e6108c9565b6040516101ab91906120a5565b60405180910390f35b3480156101c057600080fd5b506101c9610931565b6040516101d691906120c0565b60405180910390f35b3480156101eb57600080fd5b5061020660048036038101906102019190611bb2565b610a74565b6040516102139190612046565b60405180910390f35b34801561022857600080fd5b50610231610ab0565b60405161023e9190612083565b60405180910390f35b34801561025357600080fd5b5061025c610c89565b6040516102699190612061565b60405180910390f35b34801561027e57600080fd5b50610287611005565b60405161029491906121fd565b60405180910390f35b6102b760048036038101906102b29190611ac9565b61100b565b005b3480156102c557600080fd5b506102e060048036038101906102db9190611ac9565b6111cc565b6040516102ed91906120db565b60405180910390f35b34801561030257600080fd5b5061031d60048036038101906103189190611bb2565b6112f7565b60405161032a9190612046565b60405180910390f35b61034d60048036038101906103489190611b33565b611333565b60405161035a91906120a5565b60405180910390f35b34801561036f57600080fd5b5061037861160e565b60405161038591906120a5565b60405180910390f35b6103a860048036038101906103a39190611ac9565b611676565b005b60606103b461160e565b6103f3576040517f08c379a00000000000000000000000000000000000000000000000000000000081526004016103ea9061217d565b60405180910390fd5b600360008373ffffffffffffffffffffffffffffffffffffffff1673ffffffffffffffffffffffffffffffffffffffff16815260200190815260200160002060020160149054906101000a900460ff161561052a57600360008373ffffffffffffffffffffffffffffffffffffffff1673ffffffffffffffffffffffffffffffffffffffff1681526020019081526020016000206001018054600181600116156101000203166002900480601f01602080910402602001604051908101604052809291908181526020018280546001816001161561010002031660029004801561051e5780601f106104f35761010080835404028352916020019161051e565b820191906000526020600020905b81548152906001019060200180831161050157829003601f168201915b50505050509050610563565b6040518060400160405280602081526020017f4e6f207375636820437573746f6d657220696e2074686520646174616261736581525090505b919050565b60006105726108c9565b6105b1576040517f08c379a00000000000000000000000000000000000000000000000000000000081526004016105a89061215d565b60405180910390fd5b83600360003373ffffffffffffffffffffffffffffffffffffffff1673ffffffffffffffffffffffffffffffffffffffff168152602001908152602001600020600001908051906020019061060792919061197e565b5082600360003373ffffffffffffffffffffffffffffffffffffffff1673ffffffffffffffffffffffffffffffffffffffff168152602001908152602001600020600101908051906020019061065e92919061197e565b5081600360003373ffffffffffffffffffffffffffffffffffffffff1673ffffffffffffffffffffffffffffffffffffffff16815260200190815260200160002060020160006101000a81548173ffffffffffffffffffffffffffffffffffffffff021916908373ffffffffffffffffffffffffffffffffffffffff160217905550600190509392505050565b60006106f561160e565b15610735576040517f08c379a000000000000000000000000000000000000000000000000000000000815260040161072c9061213d565b60405180910390fd5b81600460003373ffffffffffffffffffffffffffffffffffffffff1673ffffffffffffffffffffffffffffffffffffffff168152602001908152602001600020600001908051906020019061078b92919061197e565b506001600460003373ffffffffffffffffffffffffffffffffffffffff1673ffffffffffffffffffffffffffffffffffffffff16815260200190815260200160002060010160006101000a81548160ff0219169083151502179055506001600460003373ffffffffffffffffffffffffffffffffffffffff1673ffffffffffffffffffffffffffffffffffffffff16815260200190815260200160002060010160016101000a81548160ff0219169083600181111561084657fe5b02179055506000339080600181540180825580915050600190039060005260206000200160009091909190916101000a81548173ffffffffffffffffffffffffffffffffffffffff021916908373ffffffffffffffffffffffffffffffffffffffff16021790555060026000815480929190600101919050555060019050919050565b6000600360003373ffffffffffffffffffffffffffffffffffffffff1673ffffffffffffffffffffffffffffffffffffffff16815260200190815260200160002060020160149054906101000a900460ff1615610929576001905061092e565b600090505b90565b600061093b6108c9565b61097a576040517f08c379a00000000000000000000000000000000000000000000000000000000081526004016109719061215d565b60405180910390fd5b6000600360003373ffffffffffffffffffffffffffffffffffffffff1673ffffffffffffffffffffffffffffffffffffffff16815260200190815260200160002060020160009054906101000a900473ffffffffffffffffffffffffffffffffffffffff169050600460008273ffffffffffffffffffffffffffffffffffffffff1673ffffffffffffffffffffffffffffffffffffffff16815260200190815260200160002060020160003373ffffffffffffffffffffffffffffffffffffffff1673ffffffffffffffffffffffffffffffffffffffff16815260200190815260200160002060009054906101000a900460ff1691505090565b60018181548110610a8157fe5b906000526020600020016000915054906101000a900473ffffffffffffffffffffffffffffffffffffffff1681565b60608060008054905067ffffffffffffffff81118015610acf57600080fd5b50604051908082528060200260200182016040528015610b0957816020015b610af66119fe565b815260200190600190039081610aee5790505b50905060005b600080549050811015610c81576000808281548110610b2a57fe5b9060005260206000200160009054906101000a900473ffffffffffffffffffffffffffffffffffffffff1690506040518060400160405280600460008473ffffffffffffffffffffffffffffffffffffffff1673ffffffffffffffffffffffffffffffffffffffff1681526020019081526020016000206000018054600181600116156101000203166002900480601f016020809104026020016040519081016040528092919081815260200182805460018160011615610100020316600290048015610c385780601f10610c0d57610100808354040283529160200191610c38565b820191906000526020600020905b815481529060010190602001808311610c1b57829003601f168201915b505050505081526020018273ffffffffffffffffffffffffffffffffffffffff16815250838381518110610c6857fe5b6020026020010181905250508080600101915050610b0f565b508091505090565b60606000600460003373ffffffffffffffffffffffffffffffffffffffff1673ffffffffffffffffffffffffffffffffffffffff1681526020019081526020016000206003018054905090506000805b82811015610e1e576000600460003373ffffffffffffffffffffffffffffffffffffffff1673ffffffffffffffffffffffffffffffffffffffff1681526020019081526020016000206003018281548110610d3057fe5b9060005260206000200160009054906101000a900473ffffffffffffffffffffffffffffffffffffffff169050600280811115610d6957fe5b600460003373ffffffffffffffffffffffffffffffffffffffff1673ffffffffffffffffffffffffffffffffffffffff16815260200190815260200160002060020160008373ffffffffffffffffffffffffffffffffffffffff1673ffffffffffffffffffffffffffffffffffffffff16815260200190815260200160002060009054906101000a900460ff166002811115610e0157fe5b1415610e105782806001019350505b508080600101915050610cd9565b5060608167ffffffffffffffff81118015610e3857600080fd5b50604051908082528060200260200182016040528015610e675781602001602082028036833780820191505090505b5090506000805b84811015610ffa576000600460003373ffffffffffffffffffffffffffffffffffffffff1673ffffffffffffffffffffffffffffffffffffffff1681526020019081526020016000206003018281548110610ec557fe5b9060005260206000200160009054906101000a900473ffffffffffffffffffffffffffffffffffffffff169050600280811115610efe57fe5b600460003373ffffffffffffffffffffffffffffffffffffffff1673ffffffffffffffffffffffffffffffffffffffff16815260200190815260200160002060020160008373ffffffffffffffffffffffffffffffffffffffff1673ffffffffffffffffffffffffffffffffffffffff16815260200190815260200160002060009054906101000a900460ff166002811115610f9657fe5b1415610fec5780848481518110610fa957fe5b602002602001019073ffffffffffffffffffffffffffffffffffffffff16908173ffffffffffffffffffffffffffffffffffffffff168152505082806001019350505b508080600101915050610e6e565b508194505050505090565b60025481565b61101361160e565b611052576040517f08c379a0000000000000000000000000000000000000000000000000000000008152600401611049906120fd565b60405180910390fd5b6000600360008373ffffffffffffffffffffffffffffffffffffffff1673ffffffffffffffffffffffffffffffffffffffff16815260200190815260200160002060020160009054906101000a900473ffffffffffffffffffffffffffffffffffffffff1690503373ffffffffffffffffffffffffffffffffffffffff168173ffffffffffffffffffffffffffffffffffffffff1614611127576040517f08c379a000000000000000000000000000000000000000000000000000000000815260040161111e906121bd565b60405180910390fd5b6001600460003373ffffffffffffffffffffffffffffffffffffffff1673ffffffffffffffffffffffffffffffffffffffff16815260200190815260200160002060020160008473ffffffffffffffffffffffffffffffffffffffff1673ffffffffffffffffffffffffffffffffffffffff16815260200190815260200160002060006101000a81548160ff021916908360028111156111c357fe5b02179055505050565b60606111d661160e565b611215576040517f08c379a000000000000000000000000000000000000000000000000000000000815260040161120c9061211d565b60405180910390fd5b600360008373ffffffffffffffffffffffffffffffffffffffff1673ffffffffffffffffffffffffffffffffffffffff1681526020019081526020016000206000018054600181600116156101000203166002900480601f0160208091040260200160405190810160405280929190818152602001828054600181600116156101000203166002900480156112eb5780601f106112c0576101008083540402835291602001916112eb565b820191906000526020600020905b8154815290600101906020018083116112ce57829003601f168201915b50505050509050919050565b6000818154811061130457fe5b906000526020600020016000915054906101000a900473ffffffffffffffffffffffffffffffffffffffff1681565b600061133d6108c9565b1561137d576040517f08c379a00000000000000000000000000000000000000000000000000000000081526004016113749061219d565b60405180910390fd5b600460008373ffffffffffffffffffffffffffffffffffffffff1673ffffffffffffffffffffffffffffffffffffffff16815260200190815260200160002060010160009054906101000a900460ff1661140c576040517f08c379a0000000000000000000000000000000000000000000000000000000008152600401611403906121dd565b60405180910390fd5b83600360003373ffffffffffffffffffffffffffffffffffffffff1673ffffffffffffffffffffffffffffffffffffffff168152602001908152602001600020600001908051906020019061146292919061197e565b5082600360003373ffffffffffffffffffffffffffffffffffffffff1673ffffffffffffffffffffffffffffffffffffffff16815260200190815260200160002060010190805190602001906114b992919061197e565b5081600360003373ffffffffffffffffffffffffffffffffffffffff1673ffffffffffffffffffffffffffffffffffffffff16815260200190815260200160002060020160006101000a81548173ffffffffffffffffffffffffffffffffffffffff021916908373ffffffffffffffffffffffffffffffffffffffff1602179055506001600360003373ffffffffffffffffffffffffffffffffffffffff1673ffffffffffffffffffffffffffffffffffffffff16815260200190815260200160002060020160146101000a81548160ff0219169083151502179055506000600360003373ffffffffffffffffffffffffffffffffffffffff1673ffffffffffffffffffffffffffffffffffffffff16815260200190815260200160002060020160156101000a81548160ff021916908360018111156115f557fe5b021790555061160382611837565b600190509392505050565b6000600460003373ffffffffffffffffffffffffffffffffffffffff1673ffffffffffffffffffffffffffffffffffffffff16815260200190815260200160002060010160009054906101000a900460ff161561166e5760019050611673565b600090505b90565b61167e61160e565b6116bd576040517f08c379a00000000000000000000000000000000000000000000000000000000081526004016116b4906120fd565b60405180910390fd5b6000600360008373ffffffffffffffffffffffffffffffffffffffff1673ffffffffffffffffffffffffffffffffffffffff16815260200190815260200160002060020160009054906101000a900473ffffffffffffffffffffffffffffffffffffffff1690503373ffffffffffffffffffffffffffffffffffffffff168173ffffffffffffffffffffffffffffffffffffffff1614611792576040517f08c379a0000000000000000000000000000000000000000000000000000000008152600401611789906121bd565b60405180910390fd5b6000600460003373ffffffffffffffffffffffffffffffffffffffff1673ffffffffffffffffffffffffffffffffffffffff16815260200190815260200160002060020160008473ffffffffffffffffffffffffffffffffffffffff1673ffffffffffffffffffffffffffffffffffffffff16815260200190815260200160002060006101000a81548160ff0219169083600281111561182e57fe5b02179055505050565b6002600460008373ffffffffffffffffffffffffffffffffffffffff1673ffffffffffffffffffffffffffffffffffffffff16815260200190815260200160002060020160003373ffffffffffffffffffffffffffffffffffffffff1673ffffffffffffffffffffffffffffffffffffffff16815260200190815260200160002060006101000a81548160ff021916908360028111156118d357fe5b0217905550600460008273ffffffffffffffffffffffffffffffffffffffff1673ffffffffffffffffffffffffffffffffffffffff168152602001908152602001600020600301339080600181540180825580915050600190039060005260206000200160009091909190916101000a81548173ffffffffffffffffffffffffffffffffffffffff021916908373ffffffffffffffffffffffffffffffffffffffff16021790555050565b828054600181600116156101000203166002900490600052602060002090601f016020900481019282601f106119bf57805160ff19168380011785556119ed565b828001600101855582156119ed579182015b828111156119ec5782518255916020019190600101906119d1565b5b5090506119fa9190611a2e565b5090565b604051806040016040528060608152602001600073ffffffffffffffffffffffffffffffffffffffff1681525090565b5b80821115611a47576000816000905550600101611a2f565b5090565b600081359050611a5a816123dd565b92915050565b600082601f830112611a7157600080fd5b8135611a84611a7f82612245565b612218565b91508082526020830160208301858383011115611aa057600080fd5b611aab83828461237d565b50505092915050565b600081359050611ac3816123f4565b92915050565b600060208284031215611adb57600080fd5b6000611ae984828501611a4b565b91505092915050565b600060208284031215611b0457600080fd5b600082013567ffffffffffffffff811115611b1e57600080fd5b611b2a84828501611a60565b91505092915050565b600080600060608486031215611b4857600080fd5b600084013567ffffffffffffffff811115611b6257600080fd5b611b6e86828701611a60565b935050602084013567ffffffffffffffff811115611b8b57600080fd5b611b9786828701611a60565b9250506040611ba886828701611a4b565b9150509250925092565b600060208284031215611bc457600080fd5b6000611bd284828501611ab4565b91505092915050565b6000611be78383611c07565b60208301905092915050565b6000611bff8383611ffa565b905092915050565b611c1081612310565b82525050565b611c1f81612310565b82525050565b6000611c3082612291565b611c3a81856122cc565b9350611c4583612271565b8060005b83811015611c76578151611c5d8882611bdb565b9750611c68836122b2565b925050600181019050611c49565b5085935050505092915050565b6000611c8e8261229c565b611c9881856122dd565b935083602082028501611caa85612281565b8060005b85811015611ce65784840389528151611cc78582611bf3565b9450611cd2836122bf565b925060208a01995050600181019050611cae565b50829750879550505050505092915050565b611d0181612322565b82525050565b611d108161236b565b82525050565b6000611d21826122a7565b611d2b81856122ee565b9350611d3b81856020860161238c565b611d44816123bf565b840191505092915050565b6000611d5a826122a7565b611d6481856122ff565b9350611d7481856020860161238c565b611d7d816123bf565b840191505092915050565b6000611d95602a836122ff565b91507f596f7520617265206e6f74207065726d697474656420746f207573652074686960008301527f732066756e6374696f6e000000000000000000000000000000000000000000006020830152604082019050919050565b6000611dfb6013836122ff565b91507f4e6f7420616e204f7267616e69736174696f6e000000000000000000000000006000830152602082019050919050565b6000611e3b6032836122ff565b91507f4f7267616e69736174696f6e20616c726561647920657869737473207769746860008301527f207468652073616d6520616464726573732100000000000000000000000000006020830152604082019050919050565b6000611ea16016836122ff565b91507f596f7520617265206e6f74206120637573746f6d6572000000000000000000006000830152602082019050919050565b6000611ee1600d836122ff565b91507f4163636573732044656e696564000000000000000000000000000000000000006000830152602082019050919050565b6000611f216018836122ff565b91507f437573746f6d657220416c7265616479204578697374732100000000000000006000830152602082019050919050565b6000611f616028836122ff565b91507f596f7520646f6e7420686176652061636365737320746f20766572696679207460008301527f68697320646174610000000000000000000000000000000000000000000000006020830152604082019050919050565b6000611fc7600d836122ff565b91507f4e6f20737563682042616e6b21000000000000000000000000000000000000006000830152602082019050919050565b600060408301600083015184820360008601526120178282611d16565b915050602083015161202c6020860182611c07565b508091505092915050565b61204081612361565b82525050565b600060208201905061205b6000830184611c16565b92915050565b6000602082019050818103600083015261207b8184611c25565b905092915050565b6000602082019050818103600083015261209d8184611c83565b905092915050565b60006020820190506120ba6000830184611cf8565b92915050565b60006020820190506120d56000830184611d07565b92915050565b600060208201905081810360008301526120f58184611d4f565b905092915050565b6000602082019050818103600083015261211681611d88565b9050919050565b6000602082019050818103600083015261213681611dee565b9050919050565b6000602082019050818103600083015261215681611e2e565b9050919050565b6000602082019050818103600083015261217681611e94565b9050919050565b6000602082019050818103600083015261219681611ed4565b9050919050565b600060208201905081810360008301526121b681611f14565b9050919050565b600060208201905081810360008301526121d681611f54565b9050919050565b600060208201905081810360008301526121f681611fba565b9050919050565b60006020820190506122126000830184612037565b92915050565b6000604051905081810181811067ffffffffffffffff8211171561223b57600080fd5b8060405250919050565b600067ffffffffffffffff82111561225c57600080fd5b601f19601f8301169050602081019050919050565b6000819050602082019050919050565b6000819050602082019050919050565b600081519050919050565b600081519050919050565b600081519050919050565b6000602082019050919050565b6000602082019050919050565b600082825260208201905092915050565b600082825260208201905092915050565b600082825260208201905092915050565b600082825260208201905092915050565b600061231b82612341565b9050919050565b60008115159050919050565b600081905061233c826123d0565b919050565b600073ffffffffffffffffffffffffffffffffffffffff82169050919050565b6000819050919050565b60006123768261232e565b9050919050565b82818337600083830152505050565b60005b838110156123aa57808201518184015260208101905061238f565b838111156123b9576000848401525b50505050565b6000601f19601f8301169050919050565b600381106123da57fe5b50565b6123e681612310565b81146123f157600080fd5b50565b6123fd81612361565b811461240857600080fd5b5056fea2646970667358221220c2665698cb4cd1f908b48532e54bcbd8c4de935cb6c340bb52584fc78cff058264736f6c634300060c0033",
  "immutableReferences": {},
  "source": "pragma experimental ABIEncoderV2;\npragma solidity >=0.4.21 <0.7.0;\n\nstruct BankInfo {\n    string b_name;\n    address bankAddress;\n}\n\ninterface KYC_Functions {\n    enum Status {\n        Accepted,\n        Rejected,\n        Pending\n    }\n    function isOrg() external view returns (bool);\n    function isCus() external view returns (bool);\n    function newCustomer(\n        string calldata _name,\n        string calldata _hash,\n        address _bank\n    ) external payable returns (bool);\n    function newOrganisation(\n        string calldata _name\n    ) external payable returns (bool);\n    function viewCustomerData(\n        address _address\n    ) external view returns (string memory);\n    function modifyCustomerData(\n        string calldata _name,\n        string calldata _hash,\n        address _bank\n    ) external payable returns (bool);\n    function checkStatus() external returns (Status);\n    function changeStatusToAccepted(address _custaddress) external payable;\n    function changeStatusToRejected(address _custaddress) external payable;\n    function viewRequests() external view returns (address[] memory);\n    function viewName(address _address) external view returns (string memory);\n}\n\ncontract KycBlockChain is KYC_Functions {\n    address[] public Banks;\n    address[] public Requests;\n    uint public bankslength = 0;\n\n    enum Entity {\n        Customer,\n        Organisation\n    }\n\n    struct Customer {\n        string c_name;\n        string data_hash;\n        address bank_address;\n        bool exists;\n        Entity entity;\n    }\n\n    struct Organisation {\n        string b_name;\n        bool exists;\n        Entity entity;\n        mapping(address => Status) requests;\n        address[] allrequests;\n    }\n\n    mapping(address => Customer) allCustomers;\n    mapping(address => Organisation) allOrganisations;\n\n    function isOrg() public view override returns (bool) {\n        // added 'override'\n        if (allOrganisations[msg.sender].exists) {\n            return true;\n        }\n        return false;\n    }\n\n    function isCus() public view override returns (bool) {\n        // added 'override'\n        if (allCustomers[msg.sender].exists) {\n            return true;\n        }\n        return false;\n    }\n\n    function newCustomer(\n        string memory _name,\n        string memory _hash,\n        address _bank\n    ) public payable override returns (bool) {\n        // added 'override'\n        require(!isCus(), \"Customer Already Exists!\");\n        require(allOrganisations[_bank].exists, \"No such Bank!\");\n        allCustomers[msg.sender].c_name = _name;\n        allCustomers[msg.sender].data_hash = _hash;\n        allCustomers[msg.sender].bank_address = _bank;\n        allCustomers[msg.sender].exists = true;\n        allCustomers[msg.sender].entity = Entity.Customer;\n        notifyBank(_bank);\n        return true;\n    }\n\n    function newOrganisation(\n        string memory _name\n    ) public payable override returns (bool) {\n        // added 'override'\n        require(!isOrg(), \"Organisation already exists with the same address!\");\n        allOrganisations[msg.sender].b_name = _name;\n        allOrganisations[msg.sender].exists = true;\n        allOrganisations[msg.sender].entity = Entity.Organisation;\n        Banks.push(msg.sender);\n        bankslength++;\n        return true;\n    }\n\n    function viewCustomerData(\n        address _address\n    ) public view override returns (string memory) {\n        // added 'override'\n        require(isOrg(), \"Access Denied\");\n        if (allCustomers[_address].exists) {\n            return allCustomers[_address].data_hash;\n        }\n        return \"No such Customer in the database\";\n    }\n\n    function modifyCustomerData(\n        string memory _name,\n        string memory _hash,\n        address _bank\n    ) public payable override returns (bool) {\n        // added 'override'\n        require(isCus(), \"You are not a customer\");\n        allCustomers[msg.sender].c_name = _name;\n        allCustomers[msg.sender].data_hash = _hash;\n        allCustomers[msg.sender].bank_address = _bank;\n        return true;\n    }\n\n    function notifyBank(address _bankaddress) internal {\n        allOrganisations[_bankaddress].requests[msg.sender] = Status.Pending;\n        allOrganisations[_bankaddress].allrequests.push(msg.sender);\n    }\n\n    function checkStatus() public override returns (Status) {\n        // added 'override'\n        require(isCus(), \"You are not a customer\");\n        address _presbank = allCustomers[msg.sender].bank_address;\n        return allOrganisations[_presbank].requests[msg.sender];\n    }\n\n    function changeStatusToAccepted(\n        address _custaddress\n    ) public payable override {\n        // added 'override'\n        require(isOrg(), \"You are not permitted to use this function\");\n        address _bank = allCustomers[_custaddress].bank_address;\n        require(\n            _bank == msg.sender,\n            \"You dont have access to verify this data\"\n        );\n        allOrganisations[msg.sender].requests[_custaddress] = Status.Accepted;\n    }\n\n    function changeStatusToRejected(\n        address _custaddress\n    ) public payable override {\n        // added 'override'\n        require(isOrg(), \"You are not permitted to use this function\");\n        address _bank = allCustomers[_custaddress].bank_address;\n        require(\n            _bank == msg.sender,\n            \"You dont have access to verify this data\"\n        );\n        allOrganisations[msg.sender].requests[_custaddress] = Status.Rejected;\n    }\n\n    // function viewRequests() public view override returns (address[] memory) {\n    //     // added 'override'\n    //     // require(isOrg(),\"You are not Permitted\");\n    //     return allOrganisations[msg.sender].allrequests;\n    // }\n\n    function viewRequests() public view override returns (address[] memory) {\n        uint count = allOrganisations[msg.sender].allrequests.length;\n\n        uint pendingCount = 0;\n        for (uint i = 0; i < count; i++) {\n            address requestAddress = allOrganisations[msg.sender].allrequests[\n                i\n            ];\n            if (\n                allOrganisations[msg.sender].requests[requestAddress] ==\n                Status.Pending\n            ) {\n                pendingCount++;\n            }\n        }\n\n        address[] memory pendingRequests = new address[](pendingCount);\n        uint index = 0;\n\n        for (uint i = 0; i < count; i++) {\n            address requestAddress = allOrganisations[msg.sender].allrequests[\n                i\n            ];\n            if (\n                allOrganisations[msg.sender].requests[requestAddress] ==\n                Status.Pending\n            ) {\n                pendingRequests[index] = requestAddress;\n                index++;\n            }\n        }\n\n        return pendingRequests;\n    }\n\n    function viewName(\n        address _address\n    ) public view override returns (string memory) {\n        // added 'override'\n        require(isOrg(), \"Not an Organisation\");\n        return allCustomers[_address].c_name;\n    }\n\n    function getBanks() public view returns (BankInfo[] memory) {\n        BankInfo[] memory banksList = new BankInfo[](Banks.length);\n\n        for (uint i = 0; i < Banks.length; i++) {\n            address bankAddr = Banks[i];\n            banksList[i] = BankInfo({\n                b_name: allOrganisations[bankAddr].b_name,\n                bankAddress: bankAddr\n            });\n        }\n\n        return banksList;\n    }\n}\n",
  "sourcePath": "/Users/justsri/kyc/contracts/kycBlockchain.sol",
  "compiler": {
    "name": "solc",
    "version": "0.6.12+commit.27d51765.Emscripten.clang"
  },
  "schemaVersion": "3.4.16",
  "updatedAt": "2025-03-30T16:48:25.344Z",
  "networkType": "ethereum",
  "devdoc": {
    "kind": "dev",
    "methods": {},
    "version": 1
  },
  "userdoc": {
    "kind": "user",
    "methods": {},
    "version": 1
  }
}