{
  "contractName": "KycBlockChain",
  "abi": [
    {
      "inputs": [
        {
          "internalType": "uint256",
          "name": "",
          "type": "uint256"
        }
      ],
      "name": "Banks",
      "outputs": [
        {
          "internalType": "address",
          "name": "",
          "type": "address"
        }
      ],
      "stateMutability": "view",
      "type": "function",
      "constant": true
    },
    {
      "inputs": [
        {
          "internalType": "uint256",
          "name": "",
          "type": "uint256"
        }
      ],
      "name": "Requests",
      "outputs": [
        {
          "internalType": "address",
          "name": "",
          "type": "address"
        }
      ],
      "stateMutability": "view",
      "type": "function",
      "constant": true
    },
    {
      "inputs": [],
      "name": "bankslength",
      "outputs": [
        {
          "internalType": "uint256",
          "name": "",
          "type": "uint256"
        }
      ],
      "stateMutability": "view",
      "type": "function",
      "constant": true
    },
    {
      "inputs": [],
      "name": "isOrg",
      "outputs": [
        {
          "internalType": "bool",
          "name": "",
          "type": "bool"
        }
      ],
      "stateMutability": "view",
      "type": "function",
      "constant": true
    },
    {
      "inputs": [],
      "name": "isCus",
      "outputs": [
        {
          "internalType": "bool",
          "name": "",
          "type": "bool"
        }
      ],
      "stateMutability": "view",
      "type": "function",
      "constant": true
    },
    {
      "inputs": [
        {
          "internalType": "string",
          "name": "_name",
          "type": "string"
        },
        {
          "internalType": "string",
          "name": "_hash",
          "type": "string"
        },
        {
          "internalType": "address",
          "name": "_bank",
          "type": "address"
        }
      ],
      "name": "newCustomer",
      "outputs": [
        {
          "internalType": "bool",
          "name": "",
          "type": "bool"
        }
      ],
      "stateMutability": "payable",
      "type": "function",
      "payable": true
    },
    {
      "inputs": [
        {
          "internalType": "string",
          "name": "_name",
          "type": "string"
        }
      ],
      "name": "newOrganisation",
      "outputs": [
        {
          "internalType": "bool",
          "name": "",
          "type": "bool"
        }
      ],
      "stateMutability": "payable",
      "type": "function",
      "payable": true
    },
    {
      "inputs": [
        {
          "internalType": "address",
          "name": "_address",
          "type": "address"
        }
      ],
      "name": "viewCustomerData",
      "outputs": [
        {
          "internalType": "string",
          "name": "",
          "type": "string"
        }
      ],
      "stateMutability": "view",
      "type": "function",
      "constant": true
    },
    {
      "inputs": [
        {
          "internalType": "string",
          "name": "_name",
          "type": "string"
        },
        {
          "internalType": "string",
          "name": "_hash",
          "type": "string"
        },
        {
          "internalType": "address",
          "name": "_bank",
          "type": "address"
        }
      ],
      "name": "modifyCustomerData",
      "outputs": [
        {
          "internalType": "bool",
          "name": "",
          "type": "bool"
        }
      ],
      "stateMutability": "payable",
      "type": "function",
      "payable": true
    },
    {
      "inputs": [],
      "name": "checkStatus",
      "outputs": [
        {
          "internalType": "enum KYC_Functions.Status",
          "name": "",
          "type": "uint8"
        }
      ],
      "stateMutability": "nonpayable",
      "type": "function"
    },
    {
      "inputs": [
        {
          "internalType": "address",
          "name": "_custaddress",
          "type": "address"
        }
      ],
      "name": "changeStatusToAccepted",
      "outputs": [],
      "stateMutability": "payable",
      "type": "function",
      "payable": true
    },
    {
      "inputs": [
        {
          "internalType": "address",
          "name": "_custaddress",
          "type": "address"
        }
      ],
      "name": "changeStatusToRejected",
      "outputs": [],
      "stateMutability": "payable",
      "type": "function",
      "payable": true
    },
    {
      "inputs": [],
      "name": "viewRequests",
      "outputs": [
        {
          "internalType": "address[]",
          "name": "",
          "type": "address[]"
        }
      ],
      "stateMutability": "view",
      "type": "function",
      "constant": true
    },
    {
      "inputs": [
        {
          "internalType": "address",
          "name": "_address",
          "type": "address"
        }
      ],
      "name": "viewName",
      "outputs": [
        {
          "internalType": "string",
          "name": "",
          "type": "string"
        }
      ],
      "stateMutability": "view",
      "type": "function",
      "constant": true
    }
  ],
  "bytecode": "0x6080604052600060025534801561001557600080fd5b50611d13806100256000396000f3fe6080604052600436106100dc5760003560e01c806360f949d91161007f578063aeb61c7c11610059578063aeb61c7c14610671578063b8d7ec2d146106d6578063d32752281461085e578063da724c0d1461088b576100dc565b806360f949d9146105385780638a53fd1114610563578063972c7387146105a7576100dc565b806331d823ac116100bb57806331d823ac146104045780633b7104f21461043157806340ac999314610467578063521e686d146104cc576100dc565b8062699429146100e15780630320403c146101ab57806305c5bf4c14610333575b600080fd5b3480156100ed57600080fd5b506101306004803603602081101561010457600080fd5b81019080803573ffffffffffffffffffffffffffffffffffffffff1690602001909291905050506108cf565b6040518080602001828103825283818151815260200191508051906020019080838360005b83811015610170578082015181840152602081019050610155565b50505050905090810190601f16801561019d5780820380516001836020036101000a031916815260200191505b509250505060405180910390f35b61031b600480360360608110156101c157600080fd5b81019080803590602001906401000000008111156101de57600080fd5b8201836020820111156101f057600080fd5b8035906020019184600183028401116401000000008311171561021257600080fd5b91908080601f016020809104026020016040519081016040528093929190818152602001838380828437600081840152601f19601f8201169050808301925050505050505091929192908035906020019064010000000081111561027557600080fd5b82018360208201111561028757600080fd5b803590602001918460018302840111640100000000831117156102a957600080fd5b91908080601f016020809104026020016040519081016040528093929190818152602001838380828437600081840152601f19601f820116905080830192505050505050509192919290803573ffffffffffffffffffffffffffffffffffffffff169060200190929190505050610ac0565b60405180821515815260200191505060405180910390f35b6103ec6004803603602081101561034957600080fd5b810190808035906020019064010000000081111561036657600080fd5b82018360208201111561037857600080fd5b8035906020019184600183028401116401000000008311171561039a57600080fd5b91908080601f016020809104026020016040519081016040528093929190818152602001838380828437600081840152601f19601f820116905080830192505050505050509192919290505050610c76565b60405180821515815260200191505060405180910390f35b34801561041057600080fd5b50610419610e6a565b60405180821515815260200191505060405180910390f35b34801561043d57600080fd5b50610446610ed2565b6040518082600281111561045657fe5b815260200191505060405180910390f35b34801561047357600080fd5b506104a06004803603602081101561048a57600080fd5b8101908080359060200190929190505050611048565b604051808273ffffffffffffffffffffffffffffffffffffffff16815260200191505060405180910390f35b3480156104d857600080fd5b506104e1611084565b6040518080602001828103825283818151815260200191508051906020019060200280838360005b83811015610524578082015181840152602081019050610509565b505050509050019250505060405180910390f35b34801561054457600080fd5b5061054d611152565b6040518082815260200191505060405180910390f35b6105a56004803603602081101561057957600080fd5b81019080803573ffffffffffffffffffffffffffffffffffffffff169060200190929190505050611158565b005b3480156105b357600080fd5b506105f6600480360360208110156105ca57600080fd5b81019080803573ffffffffffffffffffffffffffffffffffffffff169060200190929190505050611345565b6040518080602001828103825283818151815260200191508051906020019080838360005b8381101561063657808201518184015260208101905061061b565b50505050905090810190601f1680156106635780820380516001836020036101000a031916815260200191505b509250505060405180910390f35b34801561067d57600080fd5b506106aa6004803603602081101561069457600080fd5b81019080803590602001909291905050506114a3565b604051808273ffffffffffffffffffffffffffffffffffffffff16815260200191505060405180910390f35b610846600480360360608110156106ec57600080fd5b810190808035906020019064010000000081111561070957600080fd5b82018360208201111561071b57600080fd5b8035906020019184600183028401116401000000008311171561073d57600080fd5b91908080601f016020809104026020016040519081016040528093929190818152602001838380828437600081840152601f19601f820116905080830192505050505050509192919290803590602001906401000000008111156107a057600080fd5b8201836020820111156107b257600080fd5b803590602001918460018302840111640100000000831117156107d457600080fd5b91908080601f016020809104026020016040519081016040528093929190818152602001838380828437600081840152601f19601f820116905080830192505050505050509192919290803573ffffffffffffffffffffffffffffffffffffffff1690602001909291905050506114df565b60405180821515815260200191505060405180910390f35b34801561086a57600080fd5b50610873611820565b60405180821515815260200191505060405180910390f35b6108cd600480360360208110156108a157600080fd5b81019080803573ffffffffffffffffffffffffffffffffffffffff169060200190929190505050611888565b005b60606108d9611820565b61094b576040517f08c379a000000000000000000000000000000000000000000000000000000000815260040180806020018281038252600d8152602001807f4163636573732044656e6965640000000000000000000000000000000000000081525060200191505060405180910390fd5b600360008373ffffffffffffffffffffffffffffffffffffffff1673ffffffffffffffffffffffffffffffffffffffff16815260200190815260200160002060020160149054906101000a900460ff1615610a8257600360008373ffffffffffffffffffffffffffffffffffffffff1673ffffffffffffffffffffffffffffffffffffffff1681526020019081526020016000206001018054600181600116156101000203166002900480601f016020809104026020016040519081016040528092919081815260200182805460018160011615610100020316600290048015610a765780601f10610a4b57610100808354040283529160200191610a76565b820191906000526020600020905b815481529060010190602001808311610a5957829003601f168201915b50505050509050610abb565b6040518060400160405280602081526020017f4e6f207375636820437573746f6d657220696e2074686520646174616261736581525090505b919050565b6000610aca610e6a565b610b3c576040517f08c379a00000000000000000000000000000000000000000000000000000000081526004018080602001828103825260168152602001807f596f7520617265206e6f74206120637573746f6d65720000000000000000000081525060200191505060405180910390fd5b83600360003373ffffffffffffffffffffffffffffffffffffffff1673ffffffffffffffffffffffffffffffffffffffff1681526020019081526020016000206000019080519060200190610b92929190611bbc565b5082600360003373ffffffffffffffffffffffffffffffffffffffff1673ffffffffffffffffffffffffffffffffffffffff1681526020019081526020016000206001019080519060200190610be9929190611bbc565b5081600360003373ffffffffffffffffffffffffffffffffffffffff1673ffffffffffffffffffffffffffffffffffffffff16815260200190815260200160002060020160006101000a81548173ffffffffffffffffffffffffffffffffffffffff021916908373ffffffffffffffffffffffffffffffffffffffff160217905550600190509392505050565b6000610c80611820565b15610cd6576040517f08c379a0000000000000000000000000000000000000000000000000000000008152600401808060200182810382526032815260200180611c846032913960400191505060405180910390fd5b81600460003373ffffffffffffffffffffffffffffffffffffffff1673ffffffffffffffffffffffffffffffffffffffff1681526020019081526020016000206000019080519060200190610d2c929190611bbc565b506001600460003373ffffffffffffffffffffffffffffffffffffffff1673ffffffffffffffffffffffffffffffffffffffff16815260200190815260200160002060010160006101000a81548160ff0219169083151502179055506001600460003373ffffffffffffffffffffffffffffffffffffffff1673ffffffffffffffffffffffffffffffffffffffff16815260200190815260200160002060010160016101000a81548160ff02191690836001811115610de757fe5b02179055506000339080600181540180825580915050600190039060005260206000200160009091909190916101000a81548173ffffffffffffffffffffffffffffffffffffffff021916908373ffffffffffffffffffffffffffffffffffffffff16021790555060026000815480929190600101919050555060019050919050565b6000600360003373ffffffffffffffffffffffffffffffffffffffff1673ffffffffffffffffffffffffffffffffffffffff16815260200190815260200160002060020160149054906101000a900460ff1615610eca5760019050610ecf565b600090505b90565b6000610edc610e6a565b610f4e576040517f08c379a00000000000000000000000000000000000000000000000000000000081526004018080602001828103825260168152602001807f596f7520617265206e6f74206120637573746f6d65720000000000000000000081525060200191505060405180910390fd5b6000600360003373ffffffffffffffffffffffffffffffffffffffff1673ffffffffffffffffffffffffffffffffffffffff16815260200190815260200160002060020160009054906101000a900473ffffffffffffffffffffffffffffffffffffffff169050600460008273ffffffffffffffffffffffffffffffffffffffff1673ffffffffffffffffffffffffffffffffffffffff16815260200190815260200160002060020160003373ffffffffffffffffffffffffffffffffffffffff1673ffffffffffffffffffffffffffffffffffffffff16815260200190815260200160002060009054906101000a900460ff1691505090565b6001818154811061105557fe5b906000526020600020016000915054906101000a900473ffffffffffffffffffffffffffffffffffffffff1681565b6060600460003373ffffffffffffffffffffffffffffffffffffffff1673ffffffffffffffffffffffffffffffffffffffff16815260200190815260200160002060030180548060200260200160405190810160405280929190818152602001828054801561114857602002820191906000526020600020905b8160009054906101000a900473ffffffffffffffffffffffffffffffffffffffff1673ffffffffffffffffffffffffffffffffffffffff16815260200190600101908083116110fe575b5050505050905090565b60025481565b611160611820565b6111b5576040517f08c379a000000000000000000000000000000000000000000000000000000000815260040180806020018281038252602a815260200180611c5a602a913960400191505060405180910390fd5b6000600360008373ffffffffffffffffffffffffffffffffffffffff1673ffffffffffffffffffffffffffffffffffffffff16815260200190815260200160002060020160009054906101000a900473ffffffffffffffffffffffffffffffffffffffff1690503373ffffffffffffffffffffffffffffffffffffffff168173ffffffffffffffffffffffffffffffffffffffff16146112a0576040517f08c379a0000000000000000000000000000000000000000000000000000000008152600401808060200182810382526028815260200180611cb66028913960400191505060405180910390fd5b6001600460003373ffffffffffffffffffffffffffffffffffffffff1673ffffffffffffffffffffffffffffffffffffffff16815260200190815260200160002060020160008473ffffffffffffffffffffffffffffffffffffffff1673ffffffffffffffffffffffffffffffffffffffff16815260200190815260200160002060006101000a81548160ff0219169083600281111561133c57fe5b02179055505050565b606061134f611820565b6113c1576040517f08c379a00000000000000000000000000000000000000000000000000000000081526004018080602001828103825260138152602001807f4e6f7420616e204f7267616e69736174696f6e0000000000000000000000000081525060200191505060405180910390fd5b600360008373ffffffffffffffffffffffffffffffffffffffff1673ffffffffffffffffffffffffffffffffffffffff1681526020019081526020016000206000018054600181600116156101000203166002900480601f0160208091040260200160405190810160405280929190818152602001828054600181600116156101000203166002900480156114975780601f1061146c57610100808354040283529160200191611497565b820191906000526020600020905b81548152906001019060200180831161147a57829003601f168201915b50505050509050919050565b600081815481106114b057fe5b906000526020600020016000915054906101000a900473ffffffffffffffffffffffffffffffffffffffff1681565b60006114e9610e6a565b1561155c576040517f08c379a00000000000000000000000000000000000000000000000000000000081526004018080602001828103825260188152602001807f437573746f6d657220416c72656164792045786973747321000000000000000081525060200191505060405180910390fd5b600460008373ffffffffffffffffffffffffffffffffffffffff1673ffffffffffffffffffffffffffffffffffffffff16815260200190815260200160002060010160009054906101000a900460ff1661161e576040517f08c379a000000000000000000000000000000000000000000000000000000000815260040180806020018281038252600d8152602001807f4e6f20737563682042616e6b210000000000000000000000000000000000000081525060200191505060405180910390fd5b83600360003373ffffffffffffffffffffffffffffffffffffffff1673ffffffffffffffffffffffffffffffffffffffff1681526020019081526020016000206000019080519060200190611674929190611bbc565b5082600360003373ffffffffffffffffffffffffffffffffffffffff1673ffffffffffffffffffffffffffffffffffffffff16815260200190815260200160002060010190805190602001906116cb929190611bbc565b5081600360003373ffffffffffffffffffffffffffffffffffffffff1673ffffffffffffffffffffffffffffffffffffffff16815260200190815260200160002060020160006101000a81548173ffffffffffffffffffffffffffffffffffffffff021916908373ffffffffffffffffffffffffffffffffffffffff1602179055506001600360003373ffffffffffffffffffffffffffffffffffffffff1673ffffffffffffffffffffffffffffffffffffffff16815260200190815260200160002060020160146101000a81548160ff0219169083151502179055506000600360003373ffffffffffffffffffffffffffffffffffffffff1673ffffffffffffffffffffffffffffffffffffffff16815260200190815260200160002060020160156101000a81548160ff0219169083600181111561180757fe5b021790555061181582611a75565b600190509392505050565b6000600460003373ffffffffffffffffffffffffffffffffffffffff1673ffffffffffffffffffffffffffffffffffffffff16815260200190815260200160002060010160009054906101000a900460ff16156118805760019050611885565b600090505b90565b611890611820565b6118e5576040517f08c379a000000000000000000000000000000000000000000000000000000000815260040180806020018281038252602a815260200180611c5a602a913960400191505060405180910390fd5b6000600360008373ffffffffffffffffffffffffffffffffffffffff1673ffffffffffffffffffffffffffffffffffffffff16815260200190815260200160002060020160009054906101000a900473ffffffffffffffffffffffffffffffffffffffff1690503373ffffffffffffffffffffffffffffffffffffffff168173ffffffffffffffffffffffffffffffffffffffff16146119d0576040517f08c379a0000000000000000000000000000000000000000000000000000000008152600401808060200182810382526028815260200180611cb66028913960400191505060405180910390fd5b6000600460003373ffffffffffffffffffffffffffffffffffffffff1673ffffffffffffffffffffffffffffffffffffffff16815260200190815260200160002060020160008473ffffffffffffffffffffffffffffffffffffffff1673ffffffffffffffffffffffffffffffffffffffff16815260200190815260200160002060006101000a81548160ff02191690836002811115611a6c57fe5b02179055505050565b6002600460008373ffffffffffffffffffffffffffffffffffffffff1673ffffffffffffffffffffffffffffffffffffffff16815260200190815260200160002060020160003373ffffffffffffffffffffffffffffffffffffffff1673ffffffffffffffffffffffffffffffffffffffff16815260200190815260200160002060006101000a81548160ff02191690836002811115611b1157fe5b0217905550600460008273ffffffffffffffffffffffffffffffffffffffff1673ffffffffffffffffffffffffffffffffffffffff168152602001908152602001600020600301339080600181540180825580915050600190039060005260206000200160009091909190916101000a81548173ffffffffffffffffffffffffffffffffffffffff021916908373ffffffffffffffffffffffffffffffffffffffff16021790555050565b828054600181600116156101000203166002900490600052602060002090601f016020900481019282601f10611bfd57805160ff1916838001178555611c2b565b82800160010185558215611c2b579182015b82811115611c2a578251825591602001919060010190611c0f565b5b509050611c389190611c3c565b5090565b5b80821115611c55576000816000905550600101611c3d565b509056fe596f7520617265206e6f74207065726d697474656420746f2075736520746869732066756e6374696f6e4f7267616e69736174696f6e20616c7265616479206578697374732077697468207468652073616d65206164647265737321596f7520646f6e7420686176652061636365737320746f2076657269667920746869732064617461a2646970667358221220421d164ac193bdd99901e15d25754c79e202e848756272425985e5ce4d83725a64736f6c634300060c0033",
  "immutableReferences": {},
  "source": "pragma solidity >=0.4.21 <0.7.0;\r\n\r\ninterface KYC_Functions{\r\n    enum Status {Accepted, Rejected, Pending}\r\n    function isOrg() external view returns(bool);\r\n    function isCus() external view returns(bool);\r\n    function newCustomer(string calldata _name, string calldata _hash, address _bank) external payable returns(bool);\r\n    function newOrganisation(string calldata _name) external payable returns(bool);\r\n    function viewCustomerData(address _address) external view returns(string memory);\r\n    function modifyCustomerData(string calldata _name,string calldata _hash, address _bank) \r\n    external payable returns(bool);\r\n    function checkStatus() external returns(Status);\r\n    function changeStatusToAccepted(address _custaddress) external payable;\r\n    function changeStatusToRejected(address _custaddress) external payable;\r\n    function viewRequests() external view returns(address[] memory);\r\n    function viewName(address _address) external view returns(string memory);\r\n}\r\n\r\ncontract KycBlockChain is KYC_Functions{\r\n\r\n    address[] public Banks;\r\n    address[] public Requests;\r\n    uint public bankslength=0;\r\n\r\n    enum Entity { Customer, Organisation } \r\n\r\n    struct Customer{\r\n        string c_name;\r\n        string data_hash;\r\n        address bank_address;\r\n        bool exists;\r\n        Entity entity;\r\n    }\r\n\r\n    struct Organisation{\r\n        string b_name;\r\n        bool exists;\r\n        Entity entity;\r\n        mapping(address => Status) requests;\r\n        address[] allrequests;\r\n    }\r\n\r\n    mapping(address => Customer) allCustomers;\r\n    mapping(address => Organisation) allOrganisations;\r\n\r\n    function isOrg() public view override returns(bool) {   // added 'override'\r\n        if(allOrganisations[msg.sender].exists){\r\n            return true;\r\n        }\r\n        return false;\r\n    }\r\n\r\n    function isCus() public view override returns(bool) {   // added 'override'\r\n        if(allCustomers[msg.sender].exists){\r\n            return true;\r\n        }\r\n        return false;\r\n    }\r\n\r\n    function newCustomer(string memory _name, string memory _hash, address _bank) public payable override returns(bool) {  // added 'override'\r\n        require(!isCus(),\"Customer Already Exists!\");\r\n        require(allOrganisations[_bank].exists,\"No such Bank!\");\r\n        allCustomers[msg.sender].c_name = _name;\r\n        allCustomers[msg.sender].data_hash = _hash;\r\n        allCustomers[msg.sender].bank_address = _bank;\r\n        allCustomers[msg.sender].exists = true;\r\n        allCustomers[msg.sender].entity = Entity.Customer;\r\n        notifyBank(_bank);\r\n        return true;\r\n    }\r\n\r\n    function newOrganisation(string memory _name) public payable override returns(bool) {  // added 'override'\r\n        require(!isOrg(),\"Organisation already exists with the same address!\");\r\n        allOrganisations[msg.sender].b_name = _name;\r\n        allOrganisations[msg.sender].exists = true;\r\n        allOrganisations[msg.sender].entity = Entity.Organisation;\r\n        Banks.push(msg.sender);\r\n        bankslength++;\r\n        return true;\r\n    }\r\n\r\n    function viewCustomerData(address _address) public view override returns(string memory) {  // added 'override'\r\n        require(isOrg(),\"Access Denied\");\r\n        if(allCustomers[_address].exists){\r\n            return allCustomers[_address].data_hash;\r\n        }\r\n        return \"No such Customer in the database\";\r\n    }\r\n\r\n    function modifyCustomerData(string memory _name,string memory _hash, address _bank) public payable override returns(bool) {  // added 'override'\r\n        require(isCus(),\"You are not a customer\");\r\n        allCustomers[msg.sender].c_name = _name;\r\n        allCustomers[msg.sender].data_hash = _hash;\r\n        allCustomers[msg.sender].bank_address = _bank;\r\n        return true;\r\n    }\r\n\r\n    function notifyBank(address _bankaddress) internal {\r\n        allOrganisations[_bankaddress].requests[msg.sender] = Status.Pending;\r\n        allOrganisations[_bankaddress].allrequests.push(msg.sender);\r\n    }\r\n\r\n    function checkStatus() public override returns(Status) {  // added 'override'\r\n        require(isCus(),\"You are not a customer\");\r\n        address _presbank = allCustomers[msg.sender].bank_address;\r\n        return allOrganisations[_presbank].requests[msg.sender];\r\n    }\r\n\r\n    function changeStatusToAccepted(address _custaddress) public payable override {  // added 'override'\r\n        require(isOrg(),\"You are not permitted to use this function\");\r\n        address _bank = allCustomers[_custaddress].bank_address;\r\n        require(_bank == msg.sender,\"You dont have access to verify this data\");\r\n        allOrganisations[msg.sender].requests[_custaddress] = Status.Accepted;\r\n    }\r\n\r\n    function changeStatusToRejected(address _custaddress) public payable override {  // added 'override'\r\n        require(isOrg(),\"You are not permitted to use this function\");\r\n        address _bank = allCustomers[_custaddress].bank_address;\r\n        require(_bank == msg.sender,\"You dont have access to verify this data\");\r\n        allOrganisations[msg.sender].requests[_custaddress] = Status.Rejected;\r\n    }\r\n\r\n    function viewRequests() public view override returns(address[] memory) {  // added 'override'\r\n        // require(isOrg(),\"You are not Permitted\");\r\n        return allOrganisations[msg.sender].allrequests;\r\n    }\r\n\r\n    function viewName(address _address) public view override returns(string memory) {  // added 'override'\r\n        require(isOrg(),\"Not an Organisation\");\r\n        return allCustomers[_address].c_name;\r\n    }\r\n}\r\n",
  "sourcePath": "C:\\Users\\HP\\Desktop\\kycBlockchain\\kyc\\contracts\\kycBlockchain.sol",
  "compiler": {
    "name": "solc",
    "version": "0.6.12+commit.27d51765.Emscripten.clang"
  },
  "schemaVersion": "3.4.16",
  "updatedAt": "2024-11-10T09:36:44.603Z",
  "networkType": "ethereum",
  "devdoc": {
    "kind": "dev",
    "methods": {},
    "version": 1
  },
  "userdoc": {
    "kind": "user",
    "methods": {},
    "version": 1
  }
}