{
  "contractName": "KycBlockChain",
  "abi": [
    {
      "inputs": [
        {
          "internalType": "uint256",
          "name": "",
          "type": "uint256"
        }
      ],
      "name": "Banks",
      "outputs": [
        {
          "internalType": "address",
          "name": "",
          "type": "address"
        }
      ],
      "stateMutability": "view",
      "type": "function",
      "constant": true
    },
    {
      "inputs": [
        {
          "internalType": "uint256",
          "name": "",
          "type": "uint256"
        }
      ],
      "name": "Requests",
      "outputs": [
        {
          "internalType": "address",
          "name": "",
          "type": "address"
        }
      ],
      "stateMutability": "view",
      "type": "function",
      "constant": true
    },
    {
      "inputs": [],
      "name": "bankslength",
      "outputs": [
        {
          "internalType": "uint256",
          "name": "",
          "type": "uint256"
        }
      ],
      "stateMutability": "view",
      "type": "function",
      "constant": true
    },
    {
      "inputs": [],
      "name": "isOrg",
      "outputs": [
        {
          "internalType": "bool",
          "name": "",
          "type": "bool"
        }
      ],
      "stateMutability": "view",
      "type": "function",
      "constant": true
    },
    {
      "inputs": [],
      "name": "isCus",
      "outputs": [
        {
          "internalType": "bool",
          "name": "",
          "type": "bool"
        }
      ],
      "stateMutability": "view",
      "type": "function",
      "constant": true
    },
    {
      "inputs": [
        {
          "internalType": "string",
          "name": "_name",
          "type": "string"
        },
        {
          "internalType": "string",
          "name": "_hash",
          "type": "string"
        },
        {
          "internalType": "address",
          "name": "_bank",
          "type": "address"
        }
      ],
      "name": "newCustomer",
      "outputs": [
        {
          "internalType": "bool",
          "name": "",
          "type": "bool"
        }
      ],
      "stateMutability": "payable",
      "type": "function",
      "payable": true
    },
    {
      "inputs": [
        {
          "internalType": "string",
          "name": "_name",
          "type": "string"
        }
      ],
      "name": "newOrganisation",
      "outputs": [
        {
          "internalType": "bool",
          "name": "",
          "type": "bool"
        }
      ],
      "stateMutability": "payable",
      "type": "function",
      "payable": true
    },
    {
      "inputs": [
        {
          "internalType": "address",
          "name": "_address",
          "type": "address"
        }
      ],
      "name": "viewCustomerData",
      "outputs": [
        {
          "internalType": "string",
          "name": "",
          "type": "string"
        }
      ],
      "stateMutability": "view",
      "type": "function",
      "constant": true
    },
    {
      "inputs": [],
      "name": "checkStatus",
      "outputs": [
        {
          "internalType": "enum KYC_Functions.Status",
          "name": "",
          "type": "uint8"
        }
      ],
      "stateMutability": "nonpayable",
      "type": "function"
    },
    {
      "inputs": [
        {
          "internalType": "address",
          "name": "_custaddress",
          "type": "address"
        }
      ],
      "name": "changeStatusToAccepted",
      "outputs": [],
      "stateMutability": "payable",
      "type": "function",
      "payable": true
    },
    {
      "inputs": [
        {
          "internalType": "address",
          "name": "_custaddress",
          "type": "address"
        }
      ],
      "name": "changeStatusToRejected",
      "outputs": [],
      "stateMutability": "payable",
      "type": "function",
      "payable": true
    },
    {
      "inputs": [],
      "name": "viewRequests",
      "outputs": [
        {
          "internalType": "address[]",
          "name": "",
          "type": "address[]"
        }
      ],
      "stateMutability": "view",
      "type": "function",
      "constant": true
    },
    {
      "inputs": [
        {
          "internalType": "address",
          "name": "_address",
          "type": "address"
        }
      ],
      "name": "viewName",
      "outputs": [
        {
          "internalType": "string",
          "name": "",
          "type": "string"
        }
      ],
      "stateMutability": "view",
      "type": "function",
      "constant": true
    }
  ],
  "bytecode": "0x6080604052600060025534801561001557600080fd5b506118f5806100256000396000f3fe6080604052600436106100c15760003560e01c806360f949d91161007f578063aeb61c7c11610059578063aeb61c7c146104ce578063b8d7ec2d14610533578063d3275228146106bb578063da724c0d146106e8576100c1565b806360f949d9146103955780638a53fd11146103c0578063972c738714610404576100c1565b8062699429146100c657806305c5bf4c1461019057806331d823ac146102615780633b7104f21461028e57806340ac9993146102c4578063521e686d14610329575b600080fd5b3480156100d257600080fd5b50610115600480360360208110156100e957600080fd5b81019080803573ffffffffffffffffffffffffffffffffffffffff16906020019092919050505061072c565b6040518080602001828103825283818151815260200191508051906020019080838360005b8381101561015557808201518184015260208101905061013a565b50505050905090810190601f1680156101825780820380516001836020036101000a031916815260200191505b509250505060405180910390f35b610249600480360360208110156101a657600080fd5b81019080803590602001906401000000008111156101c357600080fd5b8201836020820111156101d557600080fd5b803590602001918460018302840111640100000000831117156101f757600080fd5b91908080601f016020809104026020016040519081016040528093929190818152602001838380828437600081840152601f19601f82011690508083019250505050505050919291929050505061091d565b60405180821515815260200191505060405180910390f35b34801561026d57600080fd5b50610276610a9b565b60405180821515815260200191505060405180910390f35b34801561029a57600080fd5b506102a3610af2565b604051808260028111156102b357fe5b815260200191505060405180910390f35b3480156102d057600080fd5b506102fd600480360360208110156102e757600080fd5b8101908080359060200190929190505050610c62565b604051808273ffffffffffffffffffffffffffffffffffffffff16815260200191505060405180910390f35b34801561033557600080fd5b5061033e610c9e565b6040518080602001828103825283818151815260200191508051906020019060200280838360005b83811015610381578082015181840152602081019050610366565b505050509050019250505060405180910390f35b3480156103a157600080fd5b506103aa610de6565b6040518082815260200191505060405180910390f35b610402600480360360208110156103d657600080fd5b81019080803573ffffffffffffffffffffffffffffffffffffffff169060200190929190505050610dec565b005b34801561041057600080fd5b506104536004803603602081101561042757600080fd5b81019080803573ffffffffffffffffffffffffffffffffffffffff169060200190929190505050610fd3565b6040518080602001828103825283818151815260200191508051906020019080838360005b83811015610493578082015181840152602081019050610478565b50505050905090810190601f1680156104c05780820380516001836020036101000a031916815260200191505b509250505060405180910390f35b3480156104da57600080fd5b50610507600480360360208110156104f157600080fd5b8101908080359060200190929190505050611131565b604051808273ffffffffffffffffffffffffffffffffffffffff16815260200191505060405180910390f35b6106a36004803603606081101561054957600080fd5b810190808035906020019064010000000081111561056657600080fd5b82018360208201111561057857600080fd5b8035906020019184600183028401116401000000008311171561059a57600080fd5b91908080601f016020809104026020016040519081016040528093929190818152602001838380828437600081840152601f19601f820116905080830192505050505050509192919290803590602001906401000000008111156105fd57600080fd5b82018360208201111561060f57600080fd5b8035906020019184600183028401116401000000008311171561063157600080fd5b91908080601f016020809104026020016040519081016040528093929190818152602001838380828437600081840152601f19601f820116905080830192505050505050509192919290803573ffffffffffffffffffffffffffffffffffffffff16906020019092919050505061116d565b60405180821515815260200191505060405180910390f35b3480156106c757600080fd5b506106d0611418565b60405180821515815260200191505060405180910390f35b61072a600480360360208110156106fe57600080fd5b81019080803573ffffffffffffffffffffffffffffffffffffffff16906020019092919050505061146f565b005b6060610736611418565b6107a8576040517f08c379a000000000000000000000000000000000000000000000000000000000815260040180806020018281038252600d8152602001807f4163636573732044656e6965640000000000000000000000000000000000000081525060200191505060405180910390fd5b600360008373ffffffffffffffffffffffffffffffffffffffff1673ffffffffffffffffffffffffffffffffffffffff16815260200190815260200160002060020160149054906101000a900460ff16156108df57600360008373ffffffffffffffffffffffffffffffffffffffff1673ffffffffffffffffffffffffffffffffffffffff1681526020019081526020016000206001018054600181600116156101000203166002900480601f0160208091040260200160405190810160405280929190818152602001828054600181600116156101000203166002900480156108d35780601f106108a8576101008083540402835291602001916108d3565b820191906000526020600020905b8154815290600101906020018083116108b657829003601f168201915b50505050509050610918565b6040518060400160405280602081526020017f4e6f207375636820437573746f6d657220696e2074686520646174616261736581525090505b919050565b6000610927611418565b1561097d576040517f08c379a00000000000000000000000000000000000000000000000000000000081526004018080602001828103825260328152602001806118656032913960400191505060405180910390fd5b6000600460003373ffffffffffffffffffffffffffffffffffffffff1673ffffffffffffffffffffffffffffffffffffffff1681526020019081526020016000209050828160000190805190602001906109d892919061179d565b5060018160010160006101000a81548160ff02191690831515021790555060018160010160016101000a81548160ff02191690836001811115610a1757fe5b02179055506000339080600181540180825580915050600190039060005260206000200160009091909190916101000a81548173ffffffffffffffffffffffffffffffffffffffff021916908373ffffffffffffffffffffffffffffffffffffffff1602179055506002600081548092919060010191905055506001915050919050565b6000600360003373ffffffffffffffffffffffffffffffffffffffff1673ffffffffffffffffffffffffffffffffffffffff16815260200190815260200160002060020160149054906101000a900460ff16905090565b6000610afc610a9b565b610b6e576040517f08c379a00000000000000000000000000000000000000000000000000000000081526004018080602001828103825260168152602001807f596f7520617265206e6f74206120637573746f6d65720000000000000000000081525060200191505060405180910390fd5b60046000600360003373ffffffffffffffffffffffffffffffffffffffff1673ffffffffffffffffffffffffffffffffffffffff16815260200190815260200160002060020160009054906101000a900473ffffffffffffffffffffffffffffffffffffffff1673ffffffffffffffffffffffffffffffffffffffff1673ffffffffffffffffffffffffffffffffffffffff16815260200190815260200160002060020160003373ffffffffffffffffffffffffffffffffffffffff1673ffffffffffffffffffffffffffffffffffffffff16815260200190815260200160002060009054906101000a900460ff16905090565b60018181548110610c6f57fe5b906000526020600020016000915054906101000a900473ffffffffffffffffffffffffffffffffffffffff1681565b6060610ca8611418565b610d1a576040517f08c379a00000000000000000000000000000000000000000000000000000000081526004018080602001828103825260158152602001807f596f7520617265206e6f74205065726d6974746564000000000000000000000081525060200191505060405180910390fd5b600460003373ffffffffffffffffffffffffffffffffffffffff1673ffffffffffffffffffffffffffffffffffffffff168152602001908152602001600020600301805480602002602001604051908101604052809291908181526020018280548015610ddc57602002820191906000526020600020905b8160009054906101000a900473ffffffffffffffffffffffffffffffffffffffff1673ffffffffffffffffffffffffffffffffffffffff1681526020019060010190808311610d92575b5050505050905090565b60025481565b610df4611418565b610e49576040517f08c379a000000000000000000000000000000000000000000000000000000000815260040180806020018281038252602a81526020018061183b602a913960400191505060405180910390fd5b3373ffffffffffffffffffffffffffffffffffffffff16600360008373ffffffffffffffffffffffffffffffffffffffff1673ffffffffffffffffffffffffffffffffffffffff16815260200190815260200160002060020160009054906101000a900473ffffffffffffffffffffffffffffffffffffffff1673ffffffffffffffffffffffffffffffffffffffff1614610f2f576040517f08c379a00000000000000000000000000000000000000000000000000000000081526004018080602001828103825260298152602001806118976029913960400191505060405180910390fd5b6001600460003373ffffffffffffffffffffffffffffffffffffffff1673ffffffffffffffffffffffffffffffffffffffff16815260200190815260200160002060020160008373ffffffffffffffffffffffffffffffffffffffff1673ffffffffffffffffffffffffffffffffffffffff16815260200190815260200160002060006101000a81548160ff02191690836002811115610fcb57fe5b021790555050565b6060610fdd611418565b61104f576040517f08c379a00000000000000000000000000000000000000000000000000000000081526004018080602001828103825260138152602001807f4e6f7420616e204f7267616e69736174696f6e0000000000000000000000000081525060200191505060405180910390fd5b600360008373ffffffffffffffffffffffffffffffffffffffff1673ffffffffffffffffffffffffffffffffffffffff1681526020019081526020016000206000018054600181600116156101000203166002900480601f0160208091040260200160405190810160405280929190818152602001828054600181600116156101000203166002900480156111255780601f106110fa57610100808354040283529160200191611125565b820191906000526020600020905b81548152906001019060200180831161110857829003601f168201915b50505050509050919050565b6000818154811061113e57fe5b906000526020600020016000915054906101000a900473ffffffffffffffffffffffffffffffffffffffff1681565b6000611177610a9b565b156111ea576040517f08c379a00000000000000000000000000000000000000000000000000000000081526004018080602001828103825260188152602001807f437573746f6d657220416c72656164792045786973747321000000000000000081525060200191505060405180910390fd5b600460008373ffffffffffffffffffffffffffffffffffffffff1673ffffffffffffffffffffffffffffffffffffffff16815260200190815260200160002060010160009054906101000a900460ff166112ac576040517f08c379a000000000000000000000000000000000000000000000000000000000815260040180806020018281038252600d8152602001807f4e6f20737563682042616e6b210000000000000000000000000000000000000081525060200191505060405180910390fd5b6040518060a001604052808581526020018481526020018373ffffffffffffffffffffffffffffffffffffffff168152602001600115158152602001600060018111156112f557fe5b815250600360003373ffffffffffffffffffffffffffffffffffffffff1673ffffffffffffffffffffffffffffffffffffffff168152602001908152602001600020600082015181600001908051906020019061135392919061179d565b50602082015181600101908051906020019061137092919061179d565b5060408201518160020160006101000a81548173ffffffffffffffffffffffffffffffffffffffff021916908373ffffffffffffffffffffffffffffffffffffffff16021790555060608201518160020160146101000a81548160ff02191690831515021790555060808201518160020160156101000a81548160ff021916908360018111156113fc57fe5b021790555090505061140d82611656565b600190509392505050565b6000600460003373ffffffffffffffffffffffffffffffffffffffff1673ffffffffffffffffffffffffffffffffffffffff16815260200190815260200160002060010160009054906101000a900460ff16905090565b611477611418565b6114cc576040517f08c379a000000000000000000000000000000000000000000000000000000000815260040180806020018281038252602a81526020018061183b602a913960400191505060405180910390fd5b3373ffffffffffffffffffffffffffffffffffffffff16600360008373ffffffffffffffffffffffffffffffffffffffff1673ffffffffffffffffffffffffffffffffffffffff16815260200190815260200160002060020160009054906101000a900473ffffffffffffffffffffffffffffffffffffffff1673ffffffffffffffffffffffffffffffffffffffff16146115b2576040517f08c379a00000000000000000000000000000000000000000000000000000000081526004018080602001828103825260298152602001806118976029913960400191505060405180910390fd5b6000600460003373ffffffffffffffffffffffffffffffffffffffff1673ffffffffffffffffffffffffffffffffffffffff16815260200190815260200160002060020160008373ffffffffffffffffffffffffffffffffffffffff1673ffffffffffffffffffffffffffffffffffffffff16815260200190815260200160002060006101000a81548160ff0219169083600281111561164e57fe5b021790555050565b6002600460008373ffffffffffffffffffffffffffffffffffffffff1673ffffffffffffffffffffffffffffffffffffffff16815260200190815260200160002060020160003373ffffffffffffffffffffffffffffffffffffffff1673ffffffffffffffffffffffffffffffffffffffff16815260200190815260200160002060006101000a81548160ff021916908360028111156116f257fe5b0217905550600460008273ffffffffffffffffffffffffffffffffffffffff1673ffffffffffffffffffffffffffffffffffffffff168152602001908152602001600020600301339080600181540180825580915050600190039060005260206000200160009091909190916101000a81548173ffffffffffffffffffffffffffffffffffffffff021916908373ffffffffffffffffffffffffffffffffffffffff16021790555050565b828054600181600116156101000203166002900490600052602060002090601f016020900481019282601f106117de57805160ff191683800117855561180c565b8280016001018555821561180c579182015b8281111561180b5782518255916020019190600101906117f0565b5b509050611819919061181d565b5090565b5b8082111561183657600081600090555060010161181e565b509056fe596f7520617265206e6f74207065726d697474656420746f2075736520746869732066756e6374696f6e4f7267616e69736174696f6e20616c7265616479206578697374732077697468207468652073616d65206164647265737321596f7520646f6e277420686176652061636365737320746f2076657269667920746869732064617461a264697066735822122069975bc0117db265a8b527dd885c4ddbdd61925f6d64d2ef6680350ca8664ab964736f6c634300060c0033",
  "immutableReferences": {},
  "source": "pragma solidity >=0.4.21 <0.7.0;\r\n\r\ninterface KYC_Functions {\r\n    enum Status {Accepted, Rejected, Pending}\r\n\r\n    function isOrg() external view returns(bool);\r\n    function isCus() external view returns(bool);\r\n    function newCustomer(string calldata _name, string calldata _hash, address _bank) external payable returns(bool);\r\n    function newOrganisation(string calldata _name) external payable returns(bool);\r\n    function viewCustomerData(address _address) external view returns(string memory);\r\n    function checkStatus() external returns(Status);\r\n    function changeStatusToAccepted(address _custaddress) external payable;\r\n    function changeStatusToRejected(address _custaddress) external payable;\r\n    function viewRequests() external view returns(address[] memory);\r\n    function viewName(address _address) external view returns(string memory);\r\n}\r\n\r\ncontract KycBlockChain is KYC_Functions {\r\n    address[] public Banks;\r\n    address[] public Requests;\r\n    uint public bankslength = 0;\r\n\r\n    enum Entity { Customer, Organisation } \r\n\r\n    struct Customer {\r\n        string c_name;\r\n        string data_hash;\r\n        address bank_address;\r\n        bool exists;\r\n        Entity entity;\r\n    }\r\n\r\n    struct Organisation {\r\n        string b_name;\r\n        bool exists;\r\n        Entity entity;\r\n        mapping(address => Status) requests;\r\n        address[] allrequests;\r\n    }\r\n\r\n    mapping(address => Customer) allCustomers;\r\n    mapping(address => Organisation) allOrganisations;\r\n\r\n    function isOrg() public view override returns(bool) {\r\n        return allOrganisations[msg.sender].exists;\r\n    }\r\n\r\n    function isCus() public view override returns(bool) {\r\n        return allCustomers[msg.sender].exists;\r\n    } \r\n\r\n    function newCustomer(string memory _name, string memory _hash, address _bank) public payable override returns(bool) {\r\n        require(!isCus(), \"Customer Already Exists!\");\r\n        require(allOrganisations[_bank].exists, \"No such Bank!\");\r\n        allCustomers[msg.sender] = Customer(_name, _hash, _bank, true, Entity.Customer);\r\n        notifyBank(_bank);\r\n        return true;\r\n    }\r\n\r\n    function newOrganisation(string memory _name) public payable override returns(bool) {\r\n    require(!isOrg(), \"Organisation already exists with the same address!\");\r\n    \r\n    Organisation storage org = allOrganisations[msg.sender];\r\n    org.b_name = _name;\r\n    org.exists = true;\r\n    org.entity = Entity.Organisation;\r\n\r\n    Banks.push(msg.sender);\r\n    bankslength++;\r\n    \r\n    return true;\r\n}\r\n\r\n\r\n    function viewCustomerData(address _address) public view override returns(string memory) {\r\n        require(isOrg(), \"Access Denied\");\r\n        if (allCustomers[_address].exists) {\r\n            return allCustomers[_address].data_hash;\r\n        }\r\n        return \"No such Customer in the database\";\r\n    }\r\n\r\n\r\n    function notifyBank(address _bankaddress) internal {\r\n        allOrganisations[_bankaddress].requests[msg.sender] = Status.Pending;\r\n        allOrganisations[_bankaddress].allrequests.push(msg.sender);\r\n    }\r\n\r\n    function checkStatus() public override returns(Status) {\r\n        require(isCus(), \"You are not a customer\");\r\n        return allOrganisations[allCustomers[msg.sender].bank_address].requests[msg.sender];\r\n    }\r\n\r\n    function changeStatusToAccepted(address _custaddress) public payable override {\r\n        require(isOrg(), \"You are not permitted to use this function\");\r\n        require(allCustomers[_custaddress].bank_address == msg.sender, \"You don't have access to verify this data\");\r\n        allOrganisations[msg.sender].requests[_custaddress] = Status.Accepted;\r\n    }\r\n\r\n    function changeStatusToRejected(address _custaddress) public payable override {\r\n        require(isOrg(), \"You are not permitted to use this function\");\r\n        require(allCustomers[_custaddress].bank_address == msg.sender, \"You don't have access to verify this data\");\r\n        allOrganisations[msg.sender].requests[_custaddress] = Status.Rejected;\r\n    }\r\n\r\n    function viewRequests() public view override returns(address[] memory) {\r\n        require(isOrg(), \"You are not Permitted\");\r\n        return allOrganisations[msg.sender].allrequests;\r\n    }\r\n\r\n    function viewName(address _address) public view override returns(string memory) {\r\n        require(isOrg(), \"Not an Organisation\");\r\n        return allCustomers[_address].c_name;\r\n    } \r\n}\r\n",
  "sourcePath": "C:\\Users\\HP\\Desktop\\kycBlockchain\\kyc\\contracts\\kycBlockchain.sol",
  "compiler": {
    "name": "solc",
    "version": "0.6.12+commit.27d51765.Emscripten.clang"
  },
  "schemaVersion": "3.4.16",
  "updatedAt": "2024-11-09T11:21:26.798Z",
  "networkType": "ethereum",
  "devdoc": {
    "kind": "dev",
    "methods": {},
    "version": 1
  },
  "userdoc": {
    "kind": "user",
    "methods": {},
    "version": 1
  }
}