{
  "contractName": "KycBlockChain",
  "abi": [
    {
      "inputs": [
        {
          "internalType": "uint256",
          "name": "",
          "type": "uint256"
        }
      ],
      "name": "Banks",
      "outputs": [
        {
          "internalType": "address",
          "name": "",
          "type": "address"
        }
      ],
      "stateMutability": "view",
      "type": "function",
      "constant": true
    },
    {
      "inputs": [
        {
          "internalType": "uint256",
          "name": "",
          "type": "uint256"
        }
      ],
      "name": "Requests",
      "outputs": [
        {
          "internalType": "address",
          "name": "",
          "type": "address"
        }
      ],
      "stateMutability": "view",
      "type": "function",
      "constant": true
    },
    {
      "inputs": [],
      "name": "bankslength",
      "outputs": [
        {
          "internalType": "uint256",
          "name": "",
          "type": "uint256"
        }
      ],
      "stateMutability": "view",
      "type": "function",
      "constant": true
    },
    {
      "inputs": [],
      "name": "isOrg",
      "outputs": [
        {
          "internalType": "bool",
          "name": "",
          "type": "bool"
        }
      ],
      "stateMutability": "view",
      "type": "function",
      "constant": true
    },
    {
      "inputs": [],
      "name": "isCus",
      "outputs": [
        {
          "internalType": "bool",
          "name": "",
          "type": "bool"
        }
      ],
      "stateMutability": "view",
      "type": "function",
      "constant": true
    },
    {
      "inputs": [
        {
          "internalType": "string",
          "name": "_name",
          "type": "string"
        },
        {
          "internalType": "string",
          "name": "_hash",
          "type": "string"
        },
        {
          "internalType": "address",
          "name": "_bank",
          "type": "address"
        }
      ],
      "name": "newCustomer",
      "outputs": [
        {
          "internalType": "bool",
          "name": "",
          "type": "bool"
        }
      ],
      "stateMutability": "nonpayable",
      "type": "function"
    },
    {
      "inputs": [
        {
          "internalType": "string",
          "name": "_name",
          "type": "string"
        }
      ],
      "name": "newOrganisation",
      "outputs": [
        {
          "internalType": "bool",
          "name": "",
          "type": "bool"
        }
      ],
      "stateMutability": "payable",
      "type": "function",
      "payable": true
    },
    {
      "inputs": [
        {
          "internalType": "address",
          "name": "_address",
          "type": "address"
        }
      ],
      "name": "viewCustomerData",
      "outputs": [
        {
          "internalType": "string",
          "name": "",
          "type": "string"
        }
      ],
      "stateMutability": "view",
      "type": "function",
      "constant": true
    },
    {
      "inputs": [
        {
          "internalType": "string",
          "name": "_name",
          "type": "string"
        },
        {
          "internalType": "string",
          "name": "_hash",
          "type": "string"
        },
        {
          "internalType": "address",
          "name": "_bank",
          "type": "address"
        }
      ],
      "name": "modifyCustomerData",
      "outputs": [
        {
          "internalType": "bool",
          "name": "",
          "type": "bool"
        }
      ],
      "stateMutability": "nonpayable",
      "type": "function"
    },
    {
      "inputs": [],
      "name": "checkStatus",
      "outputs": [
        {
          "internalType": "enum KYC_Functions.Status",
          "name": "",
          "type": "uint8"
        }
      ],
      "stateMutability": "nonpayable",
      "type": "function"
    },
    {
      "inputs": [
        {
          "internalType": "address",
          "name": "_custaddress",
          "type": "address"
        }
      ],
      "name": "changeStatusToAccepted",
      "outputs": [],
      "stateMutability": "payable",
      "type": "function",
      "payable": true
    },
    {
      "inputs": [
        {
          "internalType": "address",
          "name": "_custaddress",
          "type": "address"
        }
      ],
      "name": "changeStatusToRejected",
      "outputs": [],
      "stateMutability": "payable",
      "type": "function",
      "payable": true
    },
    {
      "inputs": [],
      "name": "viewRequests",
      "outputs": [
        {
          "internalType": "address[]",
          "name": "",
          "type": "address[]"
        }
      ],
      "stateMutability": "view",
      "type": "function",
      "constant": true
    },
    {
      "inputs": [
        {
          "internalType": "address",
          "name": "_address",
          "type": "address"
        }
      ],
      "name": "viewName",
      "outputs": [
        {
          "internalType": "string",
          "name": "",
          "type": "string"
        }
      ],
      "stateMutability": "view",
      "type": "function",
      "constant": true
    },
    {
      "inputs": [
        {
          "internalType": "address",
          "name": "_homeBank",
          "type": "address"
        }
      ],
      "name": "joinKycNetwork",
      "outputs": [],
      "stateMutability": "payable",
      "type": "function",
      "payable": true
    }
  ],
  "bytecode": "0x6080604052600060025534801561001557600080fd5b506121bf806100256000396000f3fe6080604052600436106100e75760003560e01c806360f949d91161008a578063aeb61c7c11610059578063aeb61c7c146106cd578063b8d7ec2d14610732578063d3275228146108c7578063da724c0d146108f4576100e7565b806360f949d9146105505780638a53fd111461057b578063972c7387146105bf578063a1f8f9d014610689576100e7565b806331d823ac116100c657806331d823ac1461041c5780633b7104f21461044957806340ac99931461047f578063521e686d146104e4576100e7565b8062699429146100ec5780630320403c146101b657806305c5bf4c1461034b575b600080fd5b3480156100f857600080fd5b5061013b6004803603602081101561010f57600080fd5b81019080803573ffffffffffffffffffffffffffffffffffffffff169060200190929190505050610938565b6040518080602001828103825283818151815260200191508051906020019080838360005b8381101561017b578082015181840152602081019050610160565b50505050905090810190601f1680156101a85780820380516001836020036101000a031916815260200191505b509250505060405180910390f35b3480156101c257600080fd5b50610333600480360360608110156101d957600080fd5b81019080803590602001906401000000008111156101f657600080fd5b82018360208201111561020857600080fd5b8035906020019184600183028401116401000000008311171561022a57600080fd5b91908080601f016020809104026020016040519081016040528093929190818152602001838380828437600081840152601f19601f8201169050808301925050505050505091929192908035906020019064010000000081111561028d57600080fd5b82018360208201111561029f57600080fd5b803590602001918460018302840111640100000000831117156102c157600080fd5b91908080601f016020809104026020016040519081016040528093929190818152602001838380828437600081840152601f19601f820116905080830192505050505050509192919290803573ffffffffffffffffffffffffffffffffffffffff169060200190929190505050610b3b565b60405180821515815260200191505060405180910390f35b6104046004803603602081101561036157600080fd5b810190808035906020019064010000000081111561037e57600080fd5b82018360208201111561039057600080fd5b803590602001918460018302840111640100000000831117156103b257600080fd5b91908080601f016020809104026020016040519081016040528093929190818152602001838380828437600081840152601f19601f820116905080830192505050505050509192919290505050610cd4565b60405180821515815260200191505060405180910390f35b34801561042857600080fd5b50610431610f62565b60405180821515815260200191505060405180910390f35b34801561045557600080fd5b5061045e610fb9565b6040518082600281111561046e57fe5b815260200191505060405180910390f35b34801561048b57600080fd5b506104b8600480360360208110156104a257600080fd5b8101908080359060200190929190505050611112565b604051808273ffffffffffffffffffffffffffffffffffffffff16815260200191505060405180910390f35b3480156104f057600080fd5b506104f961114e565b6040518080602001828103825283818151815260200191508051906020019060200280838360005b8381101561053c578082015181840152602081019050610521565b505050509050019250505060405180910390f35b34801561055c57600080fd5b5061056561121c565b6040518082815260200191505060405180910390f35b6105bd6004803603602081101561059157600080fd5b81019080803573ffffffffffffffffffffffffffffffffffffffff169060200190929190505050611222565b005b3480156105cb57600080fd5b5061060e600480360360208110156105e257600080fd5b81019080803573ffffffffffffffffffffffffffffffffffffffff16906020019092919050505061142c565b6040518080602001828103825283818151815260200191508051906020019080838360005b8381101561064e578082015181840152602081019050610633565b50505050905090810190601f16801561067b5780820380516001836020036101000a031916815260200191505b509250505060405180910390f35b6106cb6004803603602081101561069f57600080fd5b81019080803573ffffffffffffffffffffffffffffffffffffffff16906020019092919050505061156d565b005b3480156106d957600080fd5b50610706600480360360208110156106f057600080fd5b8101908080359060200190929190505050611a04565b604051808273ffffffffffffffffffffffffffffffffffffffff16815260200191505060405180910390f35b34801561073e57600080fd5b506108af6004803603606081101561075557600080fd5b810190808035906020019064010000000081111561077257600080fd5b82018360208201111561078457600080fd5b803590602001918460018302840111640100000000831117156107a657600080fd5b91908080601f016020809104026020016040519081016040528093929190818152602001838380828437600081840152601f19601f8201169050808301925050505050505091929192908035906020019064010000000081111561080957600080fd5b82018360208201111561081b57600080fd5b8035906020019184600183028401116401000000008311171561083d57600080fd5b91908080601f016020809104026020016040519081016040528093929190818152602001838380828437600081840152601f19601f820116905080830192505050505050509192919290803573ffffffffffffffffffffffffffffffffffffffff169060200190929190505050611a40565b60405180821515815260200191505060405180910390f35b3480156108d357600080fd5b506108dc611ceb565b60405180821515815260200191505060405180910390f35b6109366004803603602081101561090a57600080fd5b81019080803573ffffffffffffffffffffffffffffffffffffffff169060200190929190505050611d42565b005b6060610942611ceb565b610997576040517f08c379a000000000000000000000000000000000000000000000000000000000815260040180806020018281038252602a815260200180612160602a913960400191505060405180910390fd5b600360008373ffffffffffffffffffffffffffffffffffffffff1673ffffffffffffffffffffffffffffffffffffffff16815260200190815260200160002060020160149054906101000a900460ff16610a59576040517f08c379a00000000000000000000000000000000000000000000000000000000081526004018080602001828103825260188152602001807f437573746f6d657220646f6573206e6f7420657869737421000000000000000081525060200191505060405180910390fd5b600360008373ffffffffffffffffffffffffffffffffffffffff1673ffffffffffffffffffffffffffffffffffffffff1681526020019081526020016000206001018054600181600116156101000203166002900480601f016020809104026020016040519081016040528092919081815260200182805460018160011615610100020316600290048015610b2f5780601f10610b0457610100808354040283529160200191610b2f565b820191906000526020600020905b815481529060010190602001808311610b1257829003601f168201915b50505050509050919050565b6000610b45610f62565b610b9a576040517f08c379a000000000000000000000000000000000000000000000000000000000815260040180806020018281038252602681526020018061213a6026913960400191505060405180910390fd5b83600360003373ffffffffffffffffffffffffffffffffffffffff1673ffffffffffffffffffffffffffffffffffffffff1681526020019081526020016000206000019080519060200190610bf092919061209c565b5082600360003373ffffffffffffffffffffffffffffffffffffffff1673ffffffffffffffffffffffffffffffffffffffff1681526020019081526020016000206001019080519060200190610c4792919061209c565b5081600360003373ffffffffffffffffffffffffffffffffffffffff1673ffffffffffffffffffffffffffffffffffffffff16815260200190815260200160002060020160006101000a81548173ffffffffffffffffffffffffffffffffffffffff021916908373ffffffffffffffffffffffffffffffffffffffff160217905550600190509392505050565b6000610cde611ceb565b15610d51576040517f08c379a000000000000000000000000000000000000000000000000000000000815260040180806020018281038252601c8152602001807f4f7267616e69736174696f6e20616c726561647920657869737473210000000081525060200191505060405180910390fd5b670de0b6b3a76400003414610dce576040517f08c379a000000000000000000000000000000000000000000000000000000000815260040180806020018281038252601e8152602001807f496e697469616c203120457468657220636f737420726571756972656421000081525060200191505060405180910390fd5b6000600460003373ffffffffffffffffffffffffffffffffffffffff1673ffffffffffffffffffffffffffffffffffffffff168152602001908152602001600020905082816000019080519060200190610e2992919061209c565b5060018160010160006101000a81548160ff02191690831515021790555060018160010160016101000a81548160ff02191690836001811115610e6857fe5b0217905550670de0b6b3a7640000816005018190555080600401339080600181540180825580915050600190039060005260206000200160009091909190916101000a81548173ffffffffffffffffffffffffffffffffffffffff021916908373ffffffffffffffffffffffffffffffffffffffff1602179055506000339080600181540180825580915050600190039060005260206000200160009091909190916101000a81548173ffffffffffffffffffffffffffffffffffffffff021916908373ffffffffffffffffffffffffffffffffffffffff1602179055506002600081548092919060010191905055506001915050919050565b6000600360003373ffffffffffffffffffffffffffffffffffffffff1673ffffffffffffffffffffffffffffffffffffffff16815260200190815260200160002060020160149054906101000a900460ff16905090565b6000610fc3610f62565b611018576040517f08c379a000000000000000000000000000000000000000000000000000000000815260040180806020018281038252602681526020018061213a6026913960400191505060405180910390fd5b6000600360003373ffffffffffffffffffffffffffffffffffffffff1673ffffffffffffffffffffffffffffffffffffffff16815260200190815260200160002060020160009054906101000a900473ffffffffffffffffffffffffffffffffffffffff169050600460008273ffffffffffffffffffffffffffffffffffffffff1673ffffffffffffffffffffffffffffffffffffffff16815260200190815260200160002060020160003373ffffffffffffffffffffffffffffffffffffffff1673ffffffffffffffffffffffffffffffffffffffff16815260200190815260200160002060009054906101000a900460ff1691505090565b6001818154811061111f57fe5b906000526020600020016000915054906101000a900473ffffffffffffffffffffffffffffffffffffffff1681565b6060600460003373ffffffffffffffffffffffffffffffffffffffff1673ffffffffffffffffffffffffffffffffffffffff16815260200190815260200160002060030180548060200260200160405190810160405280929190818152602001828054801561121257602002820191906000526020600020905b8160009054906101000a900473ffffffffffffffffffffffffffffffffffffffff1673ffffffffffffffffffffffffffffffffffffffff16815260200190600101908083116111c8575b5050505050905090565b60025481565b61122a611ceb565b61127f576040517f08c379a000000000000000000000000000000000000000000000000000000000815260040180806020018281038252602a815260200180612160602a913960400191505060405180910390fd5b6000600360008373ffffffffffffffffffffffffffffffffffffffff1673ffffffffffffffffffffffffffffffffffffffff16815260200190815260200160002060020160009054906101000a900473ffffffffffffffffffffffffffffffffffffffff1690503373ffffffffffffffffffffffffffffffffffffffff168173ffffffffffffffffffffffffffffffffffffffff1614611387576040517f08c379a000000000000000000000000000000000000000000000000000000000815260040180806020018281038252600c8152602001807f556e617574686f72697a6564000000000000000000000000000000000000000081525060200191505060405180910390fd5b6001600460003373ffffffffffffffffffffffffffffffffffffffff1673ffffffffffffffffffffffffffffffffffffffff16815260200190815260200160002060020160008473ffffffffffffffffffffffffffffffffffffffff1673ffffffffffffffffffffffffffffffffffffffff16815260200190815260200160002060006101000a81548160ff0219169083600281111561142357fe5b02179055505050565b6060611436611ceb565b61148b576040517f08c379a000000000000000000000000000000000000000000000000000000000815260040180806020018281038252602a815260200180612160602a913960400191505060405180910390fd5b600360008373ffffffffffffffffffffffffffffffffffffffff1673ffffffffffffffffffffffffffffffffffffffff1681526020019081526020016000206000018054600181600116156101000203166002900480601f0160208091040260200160405190810160405280929190818152602001828054600181600116156101000203166002900480156115615780601f1061153657610100808354040283529160200191611561565b820191906000526020600020905b81548152906001019060200180831161154457829003601f168201915b50505050509050919050565b611575611ceb565b6115ca576040517f08c379a000000000000000000000000000000000000000000000000000000000815260040180806020018281038252602a815260200180612160602a913960400191505060405180910390fd5b600460008273ffffffffffffffffffffffffffffffffffffffff1673ffffffffffffffffffffffffffffffffffffffff16815260200190815260200160002060010160009054906101000a900460ff1661168c576040517f08c379a00000000000000000000000000000000000000000000000000000000081526004018080602001828103825260128152602001807f496e76616c696420486f6d652042616e6b21000000000000000000000000000081525060200191505060405180910390fd5b6000600281111561169957fe5b600460008373ffffffffffffffffffffffffffffffffffffffff1673ffffffffffffffffffffffffffffffffffffffff16815260200190815260200160002060020160003373ffffffffffffffffffffffffffffffffffffffff1673ffffffffffffffffffffffffffffffffffffffff16815260200190815260200160002060009054906101000a900460ff16600281111561173157fe5b146117a4576040517f08c379a00000000000000000000000000000000000000000000000000000000081526004018080602001828103825260118152602001807f4e6f74207965742076657269666965642100000000000000000000000000000081525060200191505060405180910390fd5b6000600460008373ffffffffffffffffffffffffffffffffffffffff1673ffffffffffffffffffffffffffffffffffffffff16815260200190815260200160002060040180549050905060018101670de0b6b3a76400008161180257fe5b043414611877576040517f08c379a00000000000000000000000000000000000000000000000000000000081526004018080602001828103825260158152602001807f496e636f727265637420636f737420736861726521000000000000000000000081525060200191505060405180910390fd5b600081348161188257fe5b04905060005b8281101561195b57600460008573ffffffffffffffffffffffffffffffffffffffff1673ffffffffffffffffffffffffffffffffffffffff16815260200190815260200160002060040181815481106118dd57fe5b9060005260206000200160009054906101000a900473ffffffffffffffffffffffffffffffffffffffff1673ffffffffffffffffffffffffffffffffffffffff166108fc839081150290604051600060405180830381858888f1935050505015801561194d573d6000803e3d6000fd5b508080600101915050611888565b50600460008473ffffffffffffffffffffffffffffffffffffffff1673ffffffffffffffffffffffffffffffffffffffff168152602001908152602001600020600401339080600181540180825580915050600190039060005260206000200160009091909190916101000a81548173ffffffffffffffffffffffffffffffffffffffff021916908373ffffffffffffffffffffffffffffffffffffffff160217905550505050565b60008181548110611a1157fe5b906000526020600020016000915054906101000a900473ffffffffffffffffffffffffffffffffffffffff1681565b6000611a4a610f62565b15611abd576040517f08c379a00000000000000000000000000000000000000000000000000000000081526004018080602001828103825260188152602001807f437573746f6d657220616c72656164792065786973747321000000000000000081525060200191505060405180910390fd5b600460008373ffffffffffffffffffffffffffffffffffffffff1673ffffffffffffffffffffffffffffffffffffffff16815260200190815260200160002060010160009054906101000a900460ff16611b7f576040517f08c379a000000000000000000000000000000000000000000000000000000000815260040180806020018281038252600d8152602001807f496e76616c69642042616e6b210000000000000000000000000000000000000081525060200191505060405180910390fd5b6040518060a001604052808581526020018481526020018373ffffffffffffffffffffffffffffffffffffffff16815260200160011515815260200160006001811115611bc857fe5b815250600360003373ffffffffffffffffffffffffffffffffffffffff1673ffffffffffffffffffffffffffffffffffffffff1681526020019081526020016000206000820151816000019080519060200190611c2692919061209c565b506020820151816001019080519060200190611c4392919061209c565b5060408201518160020160006101000a81548173ffffffffffffffffffffffffffffffffffffffff021916908373ffffffffffffffffffffffffffffffffffffffff16021790555060608201518160020160146101000a81548160ff02191690831515021790555060808201518160020160156101000a81548160ff02191690836001811115611ccf57fe5b0217905550905050611ce082611f55565b600190509392505050565b6000600460003373ffffffffffffffffffffffffffffffffffffffff1673ffffffffffffffffffffffffffffffffffffffff16815260200190815260200160002060010160009054906101000a900460ff16905090565b611d4a611ceb565b611d9f576040517f08c379a000000000000000000000000000000000000000000000000000000000815260040180806020018281038252602a815260200180612160602a913960400191505060405180910390fd5b6000600360008373ffffffffffffffffffffffffffffffffffffffff1673ffffffffffffffffffffffffffffffffffffffff16815260200190815260200160002060020160009054906101000a900473ffffffffffffffffffffffffffffffffffffffff1690503373ffffffffffffffffffffffffffffffffffffffff168173ffffffffffffffffffffffffffffffffffffffff1614611ea7576040517f08c379a000000000000000000000000000000000000000000000000000000000815260040180806020018281038252600c8152602001807f556e617574686f72697a6564000000000000000000000000000000000000000081525060200191505060405180910390fd5b6000600460003373ffffffffffffffffffffffffffffffffffffffff1673ffffffffffffffffffffffffffffffffffffffff16815260200190815260200160002060020160008473ffffffffffffffffffffffffffffffffffffffff1673ffffffffffffffffffffffffffffffffffffffff16815260200190815260200160002060006101000a81548160ff02191690836002811115611f4357fe5b0217905550611f518161156d565b5050565b6002600460008373ffffffffffffffffffffffffffffffffffffffff1673ffffffffffffffffffffffffffffffffffffffff16815260200190815260200160002060020160003373ffffffffffffffffffffffffffffffffffffffff1673ffffffffffffffffffffffffffffffffffffffff16815260200190815260200160002060006101000a81548160ff02191690836002811115611ff157fe5b0217905550600460008273ffffffffffffffffffffffffffffffffffffffff1673ffffffffffffffffffffffffffffffffffffffff168152602001908152602001600020600301339080600181540180825580915050600190039060005260206000200160009091909190916101000a81548173ffffffffffffffffffffffffffffffffffffffff021916908373ffffffffffffffffffffffffffffffffffffffff16021790555050565b828054600181600116156101000203166002900490600052602060002090601f016020900481019282601f106120dd57805160ff191683800117855561210b565b8280016001018555821561210b579182015b8281111561210a5782518255916020019190600101906120ef565b5b509050612118919061211c565b5090565b5b8082111561213557600081600090555060010161211d565b509056fe4f6e6c7920637573746f6d6572732063616e20706572666f726d207468697320616374696f6e4f6e6c79206f7267616e697a6174696f6e732063616e20706572666f726d207468697320616374696f6ea264697066735822122037f8b3206eae9d484fd2737e9527385a4acb17011d485fcbd73f20ac3b6c187a64736f6c634300060c0033",
  "immutableReferences": {},
  "source": "// pragma solidity >=0.4.21 <0.7.0;\r\n\r\n// interface KYC_Functions {\r\n//     enum Status {\r\n//         Accepted,\r\n//         Rejected,\r\n//         Pending\r\n//     }\r\n//     function isOrg() external view returns (bool);\r\n//     function isCus() external view returns (bool);\r\n//     function newCustomer(\r\n//         string calldata _name,\r\n//         string calldata _hash,\r\n//         address _bank\r\n//     ) external payable returns (bool);\r\n//     function newOrganisation(\r\n//         string calldata _name\r\n//     ) external payable returns (bool);\r\n//     function viewCustomerData(\r\n//         address _address\r\n//     ) external view returns (string memory);\r\n//     function modifyCustomerData(\r\n//         string calldata _name,\r\n//         string calldata _hash,\r\n//         address _bank\r\n//     ) external payable returns (bool);\r\n//     function checkStatus() external returns (Status);\r\n//     function changeStatusToAccepted(address _custaddress) external payable;\r\n//     function changeStatusToRejected(address _custaddress) external payable;\r\n//     function viewRequests() external view returns (address[] memory);\r\n//     function viewName(address _address) external view returns (string memory);\r\n// }\r\n\r\n// contract KycBlockChain is KYC_Functions {\r\n//     address[] public Banks;\r\n//     address[] public Requests;\r\n//     uint public bankslength = 0;\r\n\r\n//     enum Entity {\r\n//         Customer,\r\n//         Organisation\r\n//     }\r\n\r\n//     struct Customer {\r\n//         string c_name;\r\n//         string data_hash;\r\n//         address bank_address;\r\n//         bool exists;\r\n//         Entity entity;\r\n//     }\r\n\r\n//     struct Organisation {\r\n//         string b_name;\r\n//         bool exists;\r\n//         Entity entity;\r\n//         mapping(address => Status) requests;\r\n//         address[] allrequests;\r\n//     }\r\n\r\n//     mapping(address => Customer) allCustomers;\r\n//     mapping(address => Organisation) allOrganisations;\r\n\r\n//     function isOrg() public view override returns (bool) {\r\n//         // added 'override'\r\n//         if (allOrganisations[msg.sender].exists) {\r\n//             return true;\r\n//         }\r\n//         return false;\r\n//     }\r\n\r\n//     function isCus() public view override returns (bool) {\r\n//         // added 'override'\r\n//         if (allCustomers[msg.sender].exists) {\r\n//             return true;\r\n//         }\r\n//         return false;\r\n//     }\r\n\r\n//     function newCustomer(\r\n//         string memory _name,\r\n//         string memory _hash,\r\n//         address _bank\r\n//     ) public payable override returns (bool) {\r\n//         // added 'override'\r\n//         require(!isCus(), \"Customer Already Exists!\");\r\n//         require(allOrganisations[_bank].exists, \"No such Bank!\");\r\n//         allCustomers[msg.sender].c_name = _name;\r\n//         allCustomers[msg.sender].data_hash = _hash;\r\n//         allCustomers[msg.sender].bank_address = _bank;\r\n//         allCustomers[msg.sender].exists = true;\r\n//         allCustomers[msg.sender].entity = Entity.Customer;\r\n//         notifyBank(_bank);\r\n//         return true;\r\n//     }\r\n\r\n//     function newOrganisation(\r\n//         string memory _name\r\n//     ) public payable override returns (bool) {\r\n//         // added 'override'\r\n//         require(!isOrg(), \"Organisation already exists with the same address!\");\r\n//         allOrganisations[msg.sender].b_name = _name;\r\n//         allOrganisations[msg.sender].exists = true;\r\n//         allOrganisations[msg.sender].entity = Entity.Organisation;\r\n//         Banks.push(msg.sender);\r\n//         bankslength++;\r\n//         return true;\r\n//     }\r\n\r\n//     function viewCustomerData(\r\n//         address _address\r\n//     ) public view override returns (string memory) {\r\n//         // added 'override'\r\n//         require(isOrg(), \"Access Denied\");\r\n//         if (allCustomers[_address].exists) {\r\n//             return allCustomers[_address].data_hash;\r\n//         }\r\n//         return \"No such Customer in the database\";\r\n//     }\r\n\r\n//     function modifyCustomerData(\r\n//         string memory _name,\r\n//         string memory _hash,\r\n//         address _bank\r\n//     ) public payable override returns (bool) {\r\n//         // added 'override'\r\n//         require(isCus(), \"You are not a customer\");\r\n//         allCustomers[msg.sender].c_name = _name;\r\n//         allCustomers[msg.sender].data_hash = _hash;\r\n//         allCustomers[msg.sender].bank_address = _bank;\r\n//         return true;\r\n//     }\r\n\r\n//     function notifyBank(address _bankaddress) internal {\r\n//         allOrganisations[_bankaddress].requests[msg.sender] = Status.Pending;\r\n//         allOrganisations[_bankaddress].allrequests.push(msg.sender);\r\n//     }\r\n\r\n//     function checkStatus() public override returns (Status) {\r\n//         // added 'override'\r\n//         require(isCus(), \"You are not a customer\");\r\n//         address _presbank = allCustomers[msg.sender].bank_address;\r\n//         return allOrganisations[_presbank].requests[msg.sender];\r\n//     }\r\n\r\n//     function changeStatusToAccepted(\r\n//         address _custaddress\r\n//     ) public payable override {\r\n//         // added 'override'\r\n//         require(isOrg(), \"You are not permitted to use this function\");\r\n//         address _bank = allCustomers[_custaddress].bank_address;\r\n//         require(\r\n//             _bank == msg.sender,\r\n//             \"You dont have access to verify this data\"\r\n//         );\r\n//         allOrganisations[msg.sender].requests[_custaddress] = Status.Accepted;\r\n//     }\r\n\r\n//     function changeStatusToRejected(\r\n//         address _custaddress\r\n//     ) public payable override {\r\n//         // added 'override'\r\n//         require(isOrg(), \"You are not permitted to use this function\");\r\n//         address _bank = allCustomers[_custaddress].bank_address;\r\n//         require(\r\n//             _bank == msg.sender,\r\n//             \"You dont have access to verify this data\"\r\n//         );\r\n//         allOrganisations[msg.sender].requests[_custaddress] = Status.Rejected;\r\n//     }\r\n\r\n//     // function viewRequests() public view override returns (address[] memory) {\r\n//     //     // added 'override'\r\n//     //     // require(isOrg(),\"You are not Permitted\");\r\n//     //     return allOrganisations[msg.sender].allrequests;\r\n//     // }\r\n\r\n//     function viewRequests() public view override returns (address[] memory) {\r\n//         uint count = allOrganisations[msg.sender].allrequests.length;\r\n\r\n//         uint pendingCount = 0;\r\n//         for (uint i = 0; i < count; i++) {\r\n//             address requestAddress = allOrganisations[msg.sender].allrequests[\r\n//                 i\r\n//             ];\r\n//             if (\r\n//                 allOrganisations[msg.sender].requests[requestAddress] ==\r\n//                 Status.Pending\r\n//             ) {\r\n//                 pendingCount++;\r\n//             }\r\n//         }\r\n\r\n//         address[] memory pendingRequests = new address[](pendingCount);\r\n//         uint index = 0;\r\n\r\n//         for (uint i = 0; i < count; i++) {\r\n//             address requestAddress = allOrganisations[msg.sender].allrequests[\r\n//                 i\r\n//             ];\r\n//             if (\r\n//                 allOrganisations[msg.sender].requests[requestAddress] ==\r\n//                 Status.Pending\r\n//             ) {\r\n//                 pendingRequests[index] = requestAddress;\r\n//                 index++;\r\n//             }\r\n//         }\r\n\r\n//         return pendingRequests;\r\n//     }\r\n\r\n//     function viewName(\r\n//         address _address\r\n//     ) public view override returns (string memory) {\r\n//         // added 'override'\r\n//         require(isOrg(), \"Not an Organisation\");\r\n//         return allCustomers[_address].c_name;\r\n//     }\r\n// }\r\n\r\npragma solidity >=0.4.21 <0.7.0;\r\n\r\ninterface KYC_Functions {\r\n    enum Status {\r\n        Accepted,\r\n        Rejected,\r\n        Pending\r\n    }\r\n\r\n    function isOrg() external view returns (bool);\r\n\r\n    function isCus() external view returns (bool);\r\n\r\n    function newCustomer(\r\n        string calldata _name,\r\n        string calldata _hash,\r\n        address _bank\r\n    ) external returns (bool);\r\n\r\n    function newOrganisation(\r\n        string calldata _name\r\n    ) external payable returns (bool);\r\n\r\n    function viewCustomerData(\r\n        address _address\r\n    ) external view returns (string memory);\r\n\r\n    function modifyCustomerData(\r\n        string calldata _name,\r\n        string calldata _hash,\r\n        address _bank\r\n    ) external returns (bool);\r\n\r\n    function checkStatus() external returns (Status);\r\n\r\n    function changeStatusToAccepted(address _custaddress) external payable;\r\n\r\n    function changeStatusToRejected(address _custaddress) external payable;\r\n\r\n    function viewRequests() external view returns (address[] memory);\r\n\r\n    function viewName(address _address) external view returns (string memory);\r\n}\r\n\r\ncontract KycBlockChain is KYC_Functions {\r\n    address[] public Banks;\r\n    address[] public Requests;\r\n    uint public bankslength = 0;\r\n\r\n    enum Entity {\r\n        Customer,\r\n        Organisation\r\n    }\r\n\r\n    struct Customer {\r\n        string c_name;\r\n        string data_hash;\r\n        address bank_address;\r\n        bool exists;\r\n        Entity entity;\r\n    }\r\n\r\n    struct Organisation {\r\n        string b_name;\r\n        bool exists;\r\n        Entity entity;\r\n        mapping(address => Status) requests;\r\n        address[] allrequests;\r\n        address payable[] onboardedBanks;\r\n        uint baseCost;\r\n    }\r\n\r\n    mapping(address => Customer) allCustomers;\r\n    mapping(address => Organisation) allOrganisations;\r\n\r\n    modifier onlyOrg() {\r\n        require(isOrg(), \"Only organizations can perform this action\");\r\n        _;\r\n    }\r\n\r\n    modifier onlyCus() {\r\n        require(isCus(), \"Only customers can perform this action\");\r\n        _;\r\n    }\r\n\r\n    function isOrg() public view override returns (bool) {\r\n        return allOrganisations[msg.sender].exists;\r\n    }\r\n\r\n    function isCus() public view override returns (bool) {\r\n        return allCustomers[msg.sender].exists;\r\n    }\r\n\r\n    function newCustomer(\r\n        string memory _name,\r\n        string memory _hash,\r\n        address _bank\r\n    ) public override returns (bool) {\r\n        require(!isCus(), \"Customer already exists!\");\r\n        require(allOrganisations[_bank].exists, \"Invalid Bank!\");\r\n\r\n        allCustomers[msg.sender] = Customer({\r\n            c_name: _name,\r\n            data_hash: _hash,\r\n            bank_address: _bank,\r\n            exists: true,\r\n            entity: Entity.Customer\r\n        });\r\n\r\n        notifyBank(_bank);\r\n        return true;\r\n    }\r\n\r\n    function newOrganisation(\r\n        string memory _name\r\n    ) public payable override returns (bool) {\r\n        require(!isOrg(), \"Organisation already exists!\");\r\n        require(msg.value == 1 ether, \"Initial 1 Ether cost required!\");\r\n\r\n        Organisation storage org = allOrganisations[msg.sender];\r\n        org.b_name = _name;\r\n        org.exists = true;\r\n        org.entity = Entity.Organisation;\r\n        org.baseCost = 1 ether;\r\n\r\n        // Initialize the onboardedBanks array and add the home bank itself\r\n        org.onboardedBanks.push(payable(msg.sender));\r\n\r\n        Banks.push(msg.sender);\r\n        bankslength++;\r\n\r\n        return true;\r\n    }\r\n\r\n    function viewCustomerData(\r\n        address _address\r\n    ) public view override onlyOrg returns (string memory) {\r\n        require(allCustomers[_address].exists, \"Customer does not exist!\");\r\n        return allCustomers[_address].data_hash;\r\n    }\r\n\r\n    function modifyCustomerData(\r\n        string memory _name,\r\n        string memory _hash,\r\n        address _bank\r\n    ) public override onlyCus returns (bool) {\r\n        allCustomers[msg.sender].c_name = _name;\r\n        allCustomers[msg.sender].data_hash = _hash;\r\n        allCustomers[msg.sender].bank_address = _bank;\r\n        return true;\r\n    }\r\n\r\n    function notifyBank(address _bank) internal {\r\n        allOrganisations[_bank].requests[msg.sender] = Status.Pending;\r\n        allOrganisations[_bank].allrequests.push(msg.sender);\r\n    }\r\n\r\n    function checkStatus() public override onlyCus returns (Status) {\r\n        address bank = allCustomers[msg.sender].bank_address;\r\n        return allOrganisations[bank].requests[msg.sender];\r\n    }\r\n\r\n    function changeStatusToAccepted(\r\n        address _custaddress\r\n    ) public payable override onlyOrg {\r\n        address bank = allCustomers[_custaddress].bank_address;\r\n        require(bank == msg.sender, \"Unauthorized\");\r\n\r\n        allOrganisations[msg.sender].requests[_custaddress] = Status.Accepted;\r\n        joinKycNetwork(bank);\r\n    }\r\n\r\n    function changeStatusToRejected(\r\n        address _custaddress\r\n    ) public payable override onlyOrg {\r\n        address bank = allCustomers[_custaddress].bank_address;\r\n        require(bank == msg.sender, \"Unauthorized\");\r\n\r\n        allOrganisations[msg.sender].requests[_custaddress] = Status.Rejected;\r\n    }\r\n\r\n    function viewRequests() public view override returns (address[] memory) {\r\n        return allOrganisations[msg.sender].allrequests;\r\n    }\r\n\r\n    function viewName(\r\n        address _address\r\n    ) public view override onlyOrg returns (string memory) {\r\n        return allCustomers[_address].c_name;\r\n    }\r\n\r\n    function joinKycNetwork(address _homeBank) public payable onlyOrg {\r\n        require(allOrganisations[_homeBank].exists, \"Invalid Home Bank!\");\r\n        require(\r\n            allOrganisations[_homeBank].requests[msg.sender] == Status.Accepted,\r\n            \"Not yet verified!\"\r\n        );\r\n\r\n        uint k = allOrganisations[_homeBank].onboardedBanks.length;\r\n        require(msg.value == (1 ether) / (k + 1), \"Incorrect cost share!\");\r\n\r\n        // Distribute funds to previous banks\r\n        uint share = msg.value / k;\r\n        for (uint i = 0; i < k; i++) {\r\n            allOrganisations[_homeBank].onboardedBanks[i].transfer(share);\r\n        }\r\n\r\n        // Add new bank to onboarded list\r\n        allOrganisations[_homeBank].onboardedBanks.push(payable(msg.sender));\r\n    }\r\n}\r\n",
  "sourcePath": "C:\\Users\\HP\\Desktop\\kycBlockchain\\kyc\\contracts\\kycBlockchain.sol",
  "compiler": {
    "name": "solc",
    "version": "0.6.12+commit.27d51765.Emscripten.clang"
  },
  "schemaVersion": "3.4.16",
  "updatedAt": "2025-03-27T08:05:29.907Z",
  "networkType": "ethereum",
  "devdoc": {
    "kind": "dev",
    "methods": {},
    "version": 1
  },
  "userdoc": {
    "kind": "user",
    "methods": {},
    "version": 1
  }
}