{
  "contractName": "KycBlockChain",
  "abi": [
    {
      "inputs": [
        {
          "internalType": "uint256",
          "name": "",
          "type": "uint256"
        }
      ],
      "name": "Banks",
      "outputs": [
        {
          "internalType": "address",
          "name": "",
          "type": "address"
        }
      ],
      "stateMutability": "view",
      "type": "function",
      "constant": true
    },
    {
      "inputs": [
        {
          "internalType": "uint256",
          "name": "",
          "type": "uint256"
        }
      ],
      "name": "Requests",
      "outputs": [
        {
          "internalType": "address",
          "name": "",
          "type": "address"
        }
      ],
      "stateMutability": "view",
      "type": "function",
      "constant": true
    },
    {
      "inputs": [],
      "name": "bankslength",
      "outputs": [
        {
          "internalType": "uint256",
          "name": "",
          "type": "uint256"
        }
      ],
      "stateMutability": "view",
      "type": "function",
      "constant": true
    },
    {
      "inputs": [],
      "name": "isOrg",
      "outputs": [
        {
          "internalType": "bool",
          "name": "",
          "type": "bool"
        }
      ],
      "stateMutability": "view",
      "type": "function",
      "constant": true
    },
    {
      "inputs": [],
      "name": "isCus",
      "outputs": [
        {
          "internalType": "bool",
          "name": "",
          "type": "bool"
        }
      ],
      "stateMutability": "view",
      "type": "function",
      "constant": true
    },
    {
      "inputs": [
        {
          "internalType": "string",
          "name": "_name",
          "type": "string"
        },
        {
          "internalType": "string",
          "name": "_aadhar",
          "type": "string"
        },
        {
          "internalType": "string",
          "name": "_pan",
          "type": "string"
        },
        {
          "internalType": "string",
          "name": "_hash",
          "type": "string"
        },
        {
          "internalType": "address",
          "name": "_bank",
          "type": "address"
        }
      ],
      "name": "newCustomer",
      "outputs": [
        {
          "internalType": "bool",
          "name": "",
          "type": "bool"
        }
      ],
      "stateMutability": "payable",
      "type": "function",
      "payable": true
    },
    {
      "inputs": [
        {
          "internalType": "string",
          "name": "_name",
          "type": "string"
        }
      ],
      "name": "newOrganisation",
      "outputs": [
        {
          "internalType": "bool",
          "name": "",
          "type": "bool"
        }
      ],
      "stateMutability": "payable",
      "type": "function",
      "payable": true
    },
    {
      "inputs": [
        {
          "internalType": "address",
          "name": "_address",
          "type": "address"
        }
      ],
      "name": "viewCustomerData",
      "outputs": [
        {
          "internalType": "string",
          "name": "",
          "type": "string"
        }
      ],
      "stateMutability": "view",
      "type": "function",
      "constant": true
    },
    {
      "inputs": [
        {
          "internalType": "string",
          "name": "_name",
          "type": "string"
        },
        {
          "internalType": "string",
          "name": "_hash",
          "type": "string"
        },
        {
          "internalType": "address",
          "name": "_bank",
          "type": "address"
        }
      ],
      "name": "modifyCustomerData",
      "outputs": [
        {
          "internalType": "bool",
          "name": "",
          "type": "bool"
        }
      ],
      "stateMutability": "payable",
      "type": "function",
      "payable": true
    },
    {
      "inputs": [],
      "name": "checkStatus",
      "outputs": [
        {
          "internalType": "enum KYC_Functions.Status",
          "name": "",
          "type": "uint8"
        }
      ],
      "stateMutability": "nonpayable",
      "type": "function"
    },
    {
      "inputs": [
        {
          "internalType": "address",
          "name": "_custaddress",
          "type": "address"
        }
      ],
      "name": "changeStatusToAccepted",
      "outputs": [],
      "stateMutability": "payable",
      "type": "function",
      "payable": true
    },
    {
      "inputs": [
        {
          "internalType": "address",
          "name": "_custaddress",
          "type": "address"
        }
      ],
      "name": "changeStatusToRejected",
      "outputs": [],
      "stateMutability": "payable",
      "type": "function",
      "payable": true
    },
    {
      "inputs": [],
      "name": "viewRequests",
      "outputs": [
        {
          "internalType": "address[]",
          "name": "",
          "type": "address[]"
        }
      ],
      "stateMutability": "view",
      "type": "function",
      "constant": true
    },
    {
      "inputs": [
        {
          "internalType": "address",
          "name": "_address",
          "type": "address"
        }
      ],
      "name": "viewName",
      "outputs": [
        {
          "internalType": "string",
          "name": "",
          "type": "string"
        }
      ],
      "stateMutability": "view",
      "type": "function",
      "constant": true
    },
    {
      "inputs": [],
      "name": "getBanks",
      "outputs": [
        {
          "components": [
            {
              "internalType": "string",
              "name": "b_name",
              "type": "string"
            },
            {
              "internalType": "address",
              "name": "bankAddress",
              "type": "address"
            }
          ],
          "internalType": "struct BankInfo[]",
          "name": "",
          "type": "tuple[]"
        }
      ],
      "stateMutability": "view",
      "type": "function",
      "constant": true
    }
  ],
  "bytecode": "0x6080604052600060025534801561001557600080fd5b50612693806100256000396000f3fe6080604052600436106100e75760003560e01c8063521e686d1161008a578063aa1dc7c311610059578063aa1dc7c3146102f6578063aeb61c7c14610326578063d327522814610363578063da724c0d1461038e576100e7565b8063521e686d1461024757806360f949d9146102725780638a53fd111461029d578063972c7387146102b9576100e7565b806331d823ac116100c657806331d823ac146101895780633b7104f2146101b457806340ac9993146101df57806343347e0e1461021c576100e7565b8062699429146100ec5780630320403c1461012957806305c5bf4c14610159575b600080fd5b3480156100f857600080fd5b50610113600480360381019061010e9190611c3b565b6103aa565b604051610120919061232d565b60405180910390f35b610143600480360381019061013e9190611d85565b610568565b60405161015091906122f7565b60405180910390f35b610173600480360381019061016e9190611c64565b6106eb565b60405161018091906122f7565b60405180910390f35b34801561019557600080fd5b5061019e6108c9565b6040516101ab91906122f7565b60405180910390f35b3480156101c057600080fd5b506101c9610931565b6040516101d69190612312565b60405180910390f35b3480156101eb57600080fd5b5061020660048036038101906102019190611e04565b610a74565b6040516102139190612298565b60405180910390f35b34801561022857600080fd5b50610231610ab0565b60405161023e91906122d5565b60405180910390f35b34801561025357600080fd5b5061025c610c89565b60405161026991906122b3565b60405180910390f35b34801561027e57600080fd5b50610287611005565b604051610294919061244f565b60405180910390f35b6102b760048036038101906102b29190611c3b565b61100b565b005b3480156102c557600080fd5b506102e060048036038101906102db9190611c3b565b6111cc565b6040516102ed919061232d565b60405180910390f35b610310600480360381019061030b9190611ca5565b6112f7565b60405161031d91906122f7565b60405180910390f35b34801561033257600080fd5b5061034d60048036038101906103489190611e04565b61167a565b60405161035a9190612298565b60405180910390f35b34801561036f57600080fd5b506103786116b6565b60405161038591906122f7565b60405180910390f35b6103a860048036038101906103a39190611c3b565b61171e565b005b60606103b46116b6565b6103f3576040517f08c379a00000000000000000000000000000000000000000000000000000000081526004016103ea906123cf565b60405180910390fd5b600360008373ffffffffffffffffffffffffffffffffffffffff1673ffffffffffffffffffffffffffffffffffffffff16815260200190815260200160002060040160149054906101000a900460ff161561052a57600360008373ffffffffffffffffffffffffffffffffffffffff1673ffffffffffffffffffffffffffffffffffffffff1681526020019081526020016000206003018054600181600116156101000203166002900480601f01602080910402602001604051908101604052809291908181526020018280546001816001161561010002031660029004801561051e5780601f106104f35761010080835404028352916020019161051e565b820191906000526020600020905b81548152906001019060200180831161050157829003601f168201915b50505050509050610563565b6040518060400160405280602081526020017f4e6f207375636820437573746f6d657220696e2074686520646174616261736581525090505b919050565b60006105726108c9565b6105b1576040517f08c379a00000000000000000000000000000000000000000000000000000000081526004016105a8906123af565b60405180910390fd5b83600360003373ffffffffffffffffffffffffffffffffffffffff1673ffffffffffffffffffffffffffffffffffffffff1681526020019081526020016000206000019080519060200190610607929190611a26565b5082600360003373ffffffffffffffffffffffffffffffffffffffff1673ffffffffffffffffffffffffffffffffffffffff168152602001908152602001600020600301908051906020019061065e929190611a26565b5081600360003373ffffffffffffffffffffffffffffffffffffffff1673ffffffffffffffffffffffffffffffffffffffff16815260200190815260200160002060040160006101000a81548173ffffffffffffffffffffffffffffffffffffffff021916908373ffffffffffffffffffffffffffffffffffffffff160217905550600190509392505050565b60006106f56116b6565b15610735576040517f08c379a000000000000000000000000000000000000000000000000000000000815260040161072c9061238f565b60405180910390fd5b81600460003373ffffffffffffffffffffffffffffffffffffffff1673ffffffffffffffffffffffffffffffffffffffff168152602001908152602001600020600001908051906020019061078b929190611a26565b506001600460003373ffffffffffffffffffffffffffffffffffffffff1673ffffffffffffffffffffffffffffffffffffffff16815260200190815260200160002060010160006101000a81548160ff0219169083151502179055506001600460003373ffffffffffffffffffffffffffffffffffffffff1673ffffffffffffffffffffffffffffffffffffffff16815260200190815260200160002060010160016101000a81548160ff0219169083600181111561084657fe5b02179055506000339080600181540180825580915050600190039060005260206000200160009091909190916101000a81548173ffffffffffffffffffffffffffffffffffffffff021916908373ffffffffffffffffffffffffffffffffffffffff16021790555060026000815480929190600101919050555060019050919050565b6000600360003373ffffffffffffffffffffffffffffffffffffffff1673ffffffffffffffffffffffffffffffffffffffff16815260200190815260200160002060040160149054906101000a900460ff1615610929576001905061092e565b600090505b90565b600061093b6108c9565b61097a576040517f08c379a0000000000000000000000000000000000000000000000000000000008152600401610971906123af565b60405180910390fd5b6000600360003373ffffffffffffffffffffffffffffffffffffffff1673ffffffffffffffffffffffffffffffffffffffff16815260200190815260200160002060040160009054906101000a900473ffffffffffffffffffffffffffffffffffffffff169050600460008273ffffffffffffffffffffffffffffffffffffffff1673ffffffffffffffffffffffffffffffffffffffff16815260200190815260200160002060020160003373ffffffffffffffffffffffffffffffffffffffff1673ffffffffffffffffffffffffffffffffffffffff16815260200190815260200160002060009054906101000a900460ff1691505090565b60018181548110610a8157fe5b906000526020600020016000915054906101000a900473ffffffffffffffffffffffffffffffffffffffff1681565b60608060008054905067ffffffffffffffff81118015610acf57600080fd5b50604051908082528060200260200182016040528015610b0957816020015b610af6611aa6565b815260200190600190039081610aee5790505b50905060005b600080549050811015610c81576000808281548110610b2a57fe5b9060005260206000200160009054906101000a900473ffffffffffffffffffffffffffffffffffffffff1690506040518060400160405280600460008473ffffffffffffffffffffffffffffffffffffffff1673ffffffffffffffffffffffffffffffffffffffff1681526020019081526020016000206000018054600181600116156101000203166002900480601f016020809104026020016040519081016040528092919081815260200182805460018160011615610100020316600290048015610c385780601f10610c0d57610100808354040283529160200191610c38565b820191906000526020600020905b815481529060010190602001808311610c1b57829003601f168201915b505050505081526020018273ffffffffffffffffffffffffffffffffffffffff16815250838381518110610c6857fe5b6020026020010181905250508080600101915050610b0f565b508091505090565b60606000600460003373ffffffffffffffffffffffffffffffffffffffff1673ffffffffffffffffffffffffffffffffffffffff1681526020019081526020016000206003018054905090506000805b82811015610e1e576000600460003373ffffffffffffffffffffffffffffffffffffffff1673ffffffffffffffffffffffffffffffffffffffff1681526020019081526020016000206003018281548110610d3057fe5b9060005260206000200160009054906101000a900473ffffffffffffffffffffffffffffffffffffffff169050600280811115610d6957fe5b600460003373ffffffffffffffffffffffffffffffffffffffff1673ffffffffffffffffffffffffffffffffffffffff16815260200190815260200160002060020160008373ffffffffffffffffffffffffffffffffffffffff1673ffffffffffffffffffffffffffffffffffffffff16815260200190815260200160002060009054906101000a900460ff166002811115610e0157fe5b1415610e105782806001019350505b508080600101915050610cd9565b5060608167ffffffffffffffff81118015610e3857600080fd5b50604051908082528060200260200182016040528015610e675781602001602082028036833780820191505090505b5090506000805b84811015610ffa576000600460003373ffffffffffffffffffffffffffffffffffffffff1673ffffffffffffffffffffffffffffffffffffffff1681526020019081526020016000206003018281548110610ec557fe5b9060005260206000200160009054906101000a900473ffffffffffffffffffffffffffffffffffffffff169050600280811115610efe57fe5b600460003373ffffffffffffffffffffffffffffffffffffffff1673ffffffffffffffffffffffffffffffffffffffff16815260200190815260200160002060020160008373ffffffffffffffffffffffffffffffffffffffff1673ffffffffffffffffffffffffffffffffffffffff16815260200190815260200160002060009054906101000a900460ff166002811115610f9657fe5b1415610fec5780848481518110610fa957fe5b602002602001019073ffffffffffffffffffffffffffffffffffffffff16908173ffffffffffffffffffffffffffffffffffffffff168152505082806001019350505b508080600101915050610e6e565b508194505050505090565b60025481565b6110136116b6565b611052576040517f08c379a00000000000000000000000000000000000000000000000000000000081526004016110499061234f565b60405180910390fd5b6000600360008373ffffffffffffffffffffffffffffffffffffffff1673ffffffffffffffffffffffffffffffffffffffff16815260200190815260200160002060040160009054906101000a900473ffffffffffffffffffffffffffffffffffffffff1690503373ffffffffffffffffffffffffffffffffffffffff168173ffffffffffffffffffffffffffffffffffffffff1614611127576040517f08c379a000000000000000000000000000000000000000000000000000000000815260040161111e9061240f565b60405180910390fd5b6001600460003373ffffffffffffffffffffffffffffffffffffffff1673ffffffffffffffffffffffffffffffffffffffff16815260200190815260200160002060020160008473ffffffffffffffffffffffffffffffffffffffff1673ffffffffffffffffffffffffffffffffffffffff16815260200190815260200160002060006101000a81548160ff021916908360028111156111c357fe5b02179055505050565b60606111d66116b6565b611215576040517f08c379a000000000000000000000000000000000000000000000000000000000815260040161120c9061236f565b60405180910390fd5b600360008373ffffffffffffffffffffffffffffffffffffffff1673ffffffffffffffffffffffffffffffffffffffff1681526020019081526020016000206000018054600181600116156101000203166002900480601f0160208091040260200160405190810160405280929190818152602001828054600181600116156101000203166002900480156112eb5780601f106112c0576101008083540402835291602001916112eb565b820191906000526020600020905b8154815290600101906020018083116112ce57829003601f168201915b50505050509050919050565b60006113016108c9565b15611341576040517f08c379a0000000000000000000000000000000000000000000000000000000008152600401611338906123ef565b60405180910390fd5b600460008373ffffffffffffffffffffffffffffffffffffffff1673ffffffffffffffffffffffffffffffffffffffff16815260200190815260200160002060010160009054906101000a900460ff166113d0576040517f08c379a00000000000000000000000000000000000000000000000000000000081526004016113c79061242f565b60405180910390fd5b87600360003373ffffffffffffffffffffffffffffffffffffffff1673ffffffffffffffffffffffffffffffffffffffff1681526020019081526020016000206000019080519060200190611426929190611a26565b508686600360003373ffffffffffffffffffffffffffffffffffffffff1673ffffffffffffffffffffffffffffffffffffffff1681526020019081526020016000206001019190611478929190611ad6565b508484600360003373ffffffffffffffffffffffffffffffffffffffff1673ffffffffffffffffffffffffffffffffffffffff16815260200190815260200160002060020191906114ca929190611ad6565b5082600360003373ffffffffffffffffffffffffffffffffffffffff1673ffffffffffffffffffffffffffffffffffffffff1681526020019081526020016000206003019080519060200190611521929190611a26565b5081600360003373ffffffffffffffffffffffffffffffffffffffff1673ffffffffffffffffffffffffffffffffffffffff16815260200190815260200160002060040160006101000a81548173ffffffffffffffffffffffffffffffffffffffff021916908373ffffffffffffffffffffffffffffffffffffffff1602179055506001600360003373ffffffffffffffffffffffffffffffffffffffff1673ffffffffffffffffffffffffffffffffffffffff16815260200190815260200160002060040160146101000a81548160ff0219169083151502179055506000600360003373ffffffffffffffffffffffffffffffffffffffff1673ffffffffffffffffffffffffffffffffffffffff16815260200190815260200160002060040160156101000a81548160ff0219169083600181111561165d57fe5b021790555061166b826118df565b60019050979650505050505050565b6000818154811061168757fe5b906000526020600020016000915054906101000a900473ffffffffffffffffffffffffffffffffffffffff1681565b6000600460003373ffffffffffffffffffffffffffffffffffffffff1673ffffffffffffffffffffffffffffffffffffffff16815260200190815260200160002060010160009054906101000a900460ff1615611716576001905061171b565b600090505b90565b6117266116b6565b611765576040517f08c379a000000000000000000000000000000000000000000000000000000000815260040161175c9061234f565b60405180910390fd5b6000600360008373ffffffffffffffffffffffffffffffffffffffff1673ffffffffffffffffffffffffffffffffffffffff16815260200190815260200160002060040160009054906101000a900473ffffffffffffffffffffffffffffffffffffffff1690503373ffffffffffffffffffffffffffffffffffffffff168173ffffffffffffffffffffffffffffffffffffffff161461183a576040517f08c379a00000000000000000000000000000000000000000000000000000000081526004016118319061240f565b60405180910390fd5b6000600460003373ffffffffffffffffffffffffffffffffffffffff1673ffffffffffffffffffffffffffffffffffffffff16815260200190815260200160002060020160008473ffffffffffffffffffffffffffffffffffffffff1673ffffffffffffffffffffffffffffffffffffffff16815260200190815260200160002060006101000a81548160ff021916908360028111156118d657fe5b02179055505050565b6002600460008373ffffffffffffffffffffffffffffffffffffffff1673ffffffffffffffffffffffffffffffffffffffff16815260200190815260200160002060020160003373ffffffffffffffffffffffffffffffffffffffff1673ffffffffffffffffffffffffffffffffffffffff16815260200190815260200160002060006101000a81548160ff0219169083600281111561197b57fe5b0217905550600460008273ffffffffffffffffffffffffffffffffffffffff1673ffffffffffffffffffffffffffffffffffffffff168152602001908152602001600020600301339080600181540180825580915050600190039060005260206000200160009091909190916101000a81548173ffffffffffffffffffffffffffffffffffffffff021916908373ffffffffffffffffffffffffffffffffffffffff16021790555050565b828054600181600116156101000203166002900490600052602060002090601f016020900481019282601f10611a6757805160ff1916838001178555611a95565b82800160010185558215611a95579182015b82811115611a94578251825591602001919060010190611a79565b5b509050611aa29190611b56565b5090565b604051806040016040528060608152602001600073ffffffffffffffffffffffffffffffffffffffff1681525090565b828054600181600116156101000203166002900490600052602060002090601f016020900481019282601f10611b1757803560ff1916838001178555611b45565b82800160010185558215611b45579182015b82811115611b44578235825591602001919060010190611b29565b5b509050611b529190611b56565b5090565b5b80821115611b6f576000816000905550600101611b57565b5090565b600081359050611b828161262f565b92915050565b60008083601f840112611b9a57600080fd5b8235905067ffffffffffffffff811115611bb357600080fd5b602083019150836001820283011115611bcb57600080fd5b9250929050565b600082601f830112611be357600080fd5b8135611bf6611bf182612497565b61246a565b91508082526020830160208301858383011115611c1257600080fd5b611c1d8382846125cf565b50505092915050565b600081359050611c3581612646565b92915050565b600060208284031215611c4d57600080fd5b6000611c5b84828501611b73565b91505092915050565b600060208284031215611c7657600080fd5b600082013567ffffffffffffffff811115611c9057600080fd5b611c9c84828501611bd2565b91505092915050565b600080600080600080600060a0888a031215611cc057600080fd5b600088013567ffffffffffffffff811115611cda57600080fd5b611ce68a828b01611bd2565b975050602088013567ffffffffffffffff811115611d0357600080fd5b611d0f8a828b01611b88565b9650965050604088013567ffffffffffffffff811115611d2e57600080fd5b611d3a8a828b01611b88565b9450945050606088013567ffffffffffffffff811115611d5957600080fd5b611d658a828b01611bd2565b9250506080611d768a828b01611b73565b91505092959891949750929550565b600080600060608486031215611d9a57600080fd5b600084013567ffffffffffffffff811115611db457600080fd5b611dc086828701611bd2565b935050602084013567ffffffffffffffff811115611ddd57600080fd5b611de986828701611bd2565b9250506040611dfa86828701611b73565b9150509250925092565b600060208284031215611e1657600080fd5b6000611e2484828501611c26565b91505092915050565b6000611e398383611e59565b60208301905092915050565b6000611e51838361224c565b905092915050565b611e6281612562565b82525050565b611e7181612562565b82525050565b6000611e82826124e3565b611e8c818561251e565b9350611e97836124c3565b8060005b83811015611ec8578151611eaf8882611e2d565b9750611eba83612504565b925050600181019050611e9b565b5085935050505092915050565b6000611ee0826124ee565b611eea818561252f565b935083602082028501611efc856124d3565b8060005b85811015611f385784840389528151611f198582611e45565b9450611f2483612511565b925060208a01995050600181019050611f00565b50829750879550505050505092915050565b611f5381612574565b82525050565b611f62816125bd565b82525050565b6000611f73826124f9565b611f7d8185612540565b9350611f8d8185602086016125de565b611f9681612611565b840191505092915050565b6000611fac826124f9565b611fb68185612551565b9350611fc68185602086016125de565b611fcf81612611565b840191505092915050565b6000611fe7602a83612551565b91507f596f7520617265206e6f74207065726d697474656420746f207573652074686960008301527f732066756e6374696f6e000000000000000000000000000000000000000000006020830152604082019050919050565b600061204d601383612551565b91507f4e6f7420616e204f7267616e69736174696f6e000000000000000000000000006000830152602082019050919050565b600061208d603283612551565b91507f4f7267616e69736174696f6e20616c726561647920657869737473207769746860008301527f207468652073616d6520616464726573732100000000000000000000000000006020830152604082019050919050565b60006120f3601683612551565b91507f596f7520617265206e6f74206120637573746f6d6572000000000000000000006000830152602082019050919050565b6000612133600d83612551565b91507f4163636573732044656e696564000000000000000000000000000000000000006000830152602082019050919050565b6000612173601883612551565b91507f437573746f6d657220416c7265616479204578697374732100000000000000006000830152602082019050919050565b60006121b3602883612551565b91507f596f7520646f6e7420686176652061636365737320746f20766572696679207460008301527f68697320646174610000000000000000000000000000000000000000000000006020830152604082019050919050565b6000612219600d83612551565b91507f4e6f20737563682042616e6b21000000000000000000000000000000000000006000830152602082019050919050565b600060408301600083015184820360008601526122698282611f68565b915050602083015161227e6020860182611e59565b508091505092915050565b612292816125b3565b82525050565b60006020820190506122ad6000830184611e68565b92915050565b600060208201905081810360008301526122cd8184611e77565b905092915050565b600060208201905081810360008301526122ef8184611ed5565b905092915050565b600060208201905061230c6000830184611f4a565b92915050565b60006020820190506123276000830184611f59565b92915050565b600060208201905081810360008301526123478184611fa1565b905092915050565b6000602082019050818103600083015261236881611fda565b9050919050565b6000602082019050818103600083015261238881612040565b9050919050565b600060208201905081810360008301526123a881612080565b9050919050565b600060208201905081810360008301526123c8816120e6565b9050919050565b600060208201905081810360008301526123e881612126565b9050919050565b6000602082019050818103600083015261240881612166565b9050919050565b60006020820190508181036000830152612428816121a6565b9050919050565b600060208201905081810360008301526124488161220c565b9050919050565b60006020820190506124646000830184612289565b92915050565b6000604051905081810181811067ffffffffffffffff8211171561248d57600080fd5b8060405250919050565b600067ffffffffffffffff8211156124ae57600080fd5b601f19601f8301169050602081019050919050565b6000819050602082019050919050565b6000819050602082019050919050565b600081519050919050565b600081519050919050565b600081519050919050565b6000602082019050919050565b6000602082019050919050565b600082825260208201905092915050565b600082825260208201905092915050565b600082825260208201905092915050565b600082825260208201905092915050565b600061256d82612593565b9050919050565b60008115159050919050565b600081905061258e82612622565b919050565b600073ffffffffffffffffffffffffffffffffffffffff82169050919050565b6000819050919050565b60006125c882612580565b9050919050565b82818337600083830152505050565b60005b838110156125fc5780820151818401526020810190506125e1565b8381111561260b576000848401525b50505050565b6000601f19601f8301169050919050565b6003811061262c57fe5b50565b61263881612562565b811461264357600080fd5b50565b61264f816125b3565b811461265a57600080fd5b5056fea26469706673582212207530c2a55f137fbe7273f4b3ca311d945656f56523eae9d6dd536f4ee3b7aced64736f6c634300060c0033",
  "immutableReferences": {},
  "source": "pragma experimental ABIEncoderV2;\npragma solidity >=0.4.21 <0.7.0;\n\nstruct BankInfo {\n    string b_name;\n    address bankAddress;\n}\n\ninterface KYC_Functions {\n    enum Status {\n        Accepted,\n        Rejected,\n        Pending\n    }\n    function isOrg() external view returns (bool);\n    function isCus() external view returns (bool);\n    function newCustomer(\n        string calldata _name,\n        string calldata _aadhar, \n        string calldata _pan,\n        string calldata _hash,\n        address _bank\n    ) external payable returns (bool);\n    function newOrganisation(\n        string calldata _name\n    ) external payable returns (bool);\n    function viewCustomerData(\n        address _address\n    ) external view returns (string memory);\n    function modifyCustomerData(\n        string calldata _name,\n        string calldata _hash,\n        address _bank\n    ) external payable returns (bool);\n    function checkStatus() external returns (Status);\n    function changeStatusToAccepted(address _custaddress) external payable;\n    function changeStatusToRejected(address _custaddress) external payable;\n    function viewRequests() external view returns (address[] memory);\n    function viewName(address _address) external view returns (string memory);\n}\n\ncontract KycBlockChain is KYC_Functions {\n    address[] public Banks;\n    address[] public Requests;\n    uint public bankslength = 0;\n\n    enum Entity {\n        Customer,\n        Organisation\n    }\n\n    struct Customer {\n        string c_name;\n        string aadhar;\n        string pan;\n        string data_hash;\n        address bank_address;\n        bool exists;\n        Entity entity;\n    }\n\n    struct Organisation {\n        string b_name;\n        bool exists;\n        Entity entity;\n        mapping(address => Status) requests;\n        address[] allrequests;\n    }\n\n    mapping(address => Customer) allCustomers;\n    mapping(address => Organisation) allOrganisations;\n\n    function isOrg() public view override returns (bool) {\n        // added 'override'\n        if (allOrganisations[msg.sender].exists) {\n            return true;\n        }\n        return false;\n    }\n\n    function isCus() public view override returns (bool) {\n        // added 'override'\n        if (allCustomers[msg.sender].exists) {\n            return true;\n        }\n        return false;\n    }\n\n    function newCustomer(\n        string memory _name,\n        string calldata _aadhar, \n        string calldata _pan,\n        string memory _hash,\n        address _bank\n    ) public payable override returns (bool) {\n        // added 'override'\n        require(!isCus(), \"Customer Already Exists!\");\n        require(allOrganisations[_bank].exists, \"No such Bank!\");\n        allCustomers[msg.sender].c_name = _name;\n        allCustomers[msg.sender].aadhar = _aadhar;\n        allCustomers[msg.sender].pan = _pan;\n        allCustomers[msg.sender].data_hash = _hash;\n        allCustomers[msg.sender].bank_address = _bank;\n        allCustomers[msg.sender].exists = true;\n        allCustomers[msg.sender].entity = Entity.Customer;\n        notifyBank(_bank);\n        return true;\n    }\n\n    function newOrganisation(\n        string memory _name\n    ) public payable override returns (bool) {\n        // added 'override'\n        require(!isOrg(), \"Organisation already exists with the same address!\");\n        allOrganisations[msg.sender].b_name = _name;\n        allOrganisations[msg.sender].exists = true;\n        allOrganisations[msg.sender].entity = Entity.Organisation;\n        Banks.push(msg.sender);\n        bankslength++;\n        return true;\n    }\n\n    function viewCustomerData(\n        address _address\n    ) public view override returns (string memory) {\n        // added 'override'\n        require(isOrg(), \"Access Denied\");\n        if (allCustomers[_address].exists) {\n            return allCustomers[_address].data_hash;\n        }\n        return \"No such Customer in the database\";\n    }\n\n    function modifyCustomerData(\n        string memory _name,\n        string memory _hash,\n        address _bank\n    ) public payable override returns (bool) {\n        // added 'override'\n        require(isCus(), \"You are not a customer\");\n        allCustomers[msg.sender].c_name = _name;\n        allCustomers[msg.sender].data_hash = _hash;\n        allCustomers[msg.sender].bank_address = _bank;\n        return true;\n    }\n\n    function notifyBank(address _bankaddress) internal {\n        allOrganisations[_bankaddress].requests[msg.sender] = Status.Pending;\n        allOrganisations[_bankaddress].allrequests.push(msg.sender);\n    }\n\n    function checkStatus() public override returns (Status) {\n        // added 'override'\n        require(isCus(), \"You are not a customer\");\n        address _presbank = allCustomers[msg.sender].bank_address;\n        return allOrganisations[_presbank].requests[msg.sender];\n    }\n\n    function changeStatusToAccepted(\n        address _custaddress\n    ) public payable override {\n        // added 'override'\n        require(isOrg(), \"You are not permitted to use this function\");\n        address _bank = allCustomers[_custaddress].bank_address;\n        require(\n            _bank == msg.sender,\n            \"You dont have access to verify this data\"\n        );\n        allOrganisations[msg.sender].requests[_custaddress] = Status.Accepted;\n    }\n\n    function changeStatusToRejected(\n        address _custaddress\n    ) public payable override {\n        // added 'override'\n        require(isOrg(), \"You are not permitted to use this function\");\n        address _bank = allCustomers[_custaddress].bank_address;\n        require(\n            _bank == msg.sender,\n            \"You dont have access to verify this data\"\n        );\n        allOrganisations[msg.sender].requests[_custaddress] = Status.Rejected;\n    }\n\n    // function viewRequests() public view override returns (address[] memory) {\n    //     // added 'override'\n    //     // require(isOrg(),\"You are not Permitted\");\n    //     return allOrganisations[msg.sender].allrequests;\n    // }\n\n    function viewRequests() public view override returns (address[] memory) {\n        uint count = allOrganisations[msg.sender].allrequests.length;\n\n        uint pendingCount = 0;\n        for (uint i = 0; i < count; i++) {\n            address requestAddress = allOrganisations[msg.sender].allrequests[\n                i\n            ];\n            if (\n                allOrganisations[msg.sender].requests[requestAddress] ==\n                Status.Pending\n            ) {\n                pendingCount++;\n            }\n        }\n\n        address[] memory pendingRequests = new address[](pendingCount);\n        uint index = 0;\n\n        for (uint i = 0; i < count; i++) {\n            address requestAddress = allOrganisations[msg.sender].allrequests[\n                i\n            ];\n            if (\n                allOrganisations[msg.sender].requests[requestAddress] ==\n                Status.Pending\n            ) {\n                pendingRequests[index] = requestAddress;\n                index++;\n            }\n        }\n\n        return pendingRequests;\n    }\n\n    function viewName(\n        address _address\n    ) public view override returns (string memory) {\n        // added 'override'\n        require(isOrg(), \"Not an Organisation\");\n        return allCustomers[_address].c_name;\n    }\n\n    function getBanks() public view returns (BankInfo[] memory) {\n        BankInfo[] memory banksList = new BankInfo[](Banks.length);\n\n        for (uint i = 0; i < Banks.length; i++) {\n            address bankAddr = Banks[i];\n            banksList[i] = BankInfo({\n                b_name: allOrganisations[bankAddr].b_name,\n                bankAddress: bankAddr\n            });\n        }\n\n        return banksList;\n    }\n}\n",
  "sourcePath": "/Users/justsri/kyc/contracts/kycBlockchain.sol",
  "compiler": {
    "name": "solc",
    "version": "0.6.12+commit.27d51765.Emscripten.clang"
  },
  "schemaVersion": "3.4.16",
  "updatedAt": "2025-03-30T17:08:24.911Z",
  "networkType": "ethereum",
  "devdoc": {
    "kind": "dev",
    "methods": {},
    "version": 1
  },
  "userdoc": {
    "kind": "user",
    "methods": {},
    "version": 1
  }
}